{
  "_format": "hh-sol-artifact-1",
  "contractName": "Domains",
  "sourceName": "contracts/Domains.sol",
  "abi": [
    {
      "inputs": [
        {
          "internalType": "string",
          "name": "_tld",
          "type": "string"
        }
      ],
      "stateMutability": "payable",
      "type": "constructor"
    },
    {
      "anonymous": false,
      "inputs": [
        {
          "indexed": true,
          "internalType": "address",
          "name": "owner",
          "type": "address"
        },
        {
          "indexed": true,
          "internalType": "address",
          "name": "approved",
          "type": "address"
        },
        {
          "indexed": true,
          "internalType": "uint256",
          "name": "tokenId",
          "type": "uint256"
        }
      ],
      "name": "Approval",
      "type": "event"
    },
    {
      "anonymous": false,
      "inputs": [
        {
          "indexed": true,
          "internalType": "address",
          "name": "owner",
          "type": "address"
        },
        {
          "indexed": true,
          "internalType": "address",
          "name": "operator",
          "type": "address"
        },
        {
          "indexed": false,
          "internalType": "bool",
          "name": "approved",
          "type": "bool"
        }
      ],
      "name": "ApprovalForAll",
      "type": "event"
    },
    {
      "anonymous": false,
      "inputs": [
        {
          "indexed": true,
          "internalType": "address",
          "name": "from",
          "type": "address"
        },
        {
          "indexed": true,
          "internalType": "address",
          "name": "to",
          "type": "address"
        },
        {
          "indexed": true,
          "internalType": "uint256",
          "name": "tokenId",
          "type": "uint256"
        }
      ],
      "name": "Transfer",
      "type": "event"
    },
    {
      "inputs": [
        {
          "internalType": "address",
          "name": "to",
          "type": "address"
        },
        {
          "internalType": "uint256",
          "name": "tokenId",
          "type": "uint256"
        }
      ],
      "name": "approve",
      "outputs": [],
      "stateMutability": "nonpayable",
      "type": "function"
    },
    {
      "inputs": [
        {
          "internalType": "address",
          "name": "owner",
          "type": "address"
        }
      ],
      "name": "balanceOf",
      "outputs": [
        {
          "internalType": "uint256",
          "name": "",
          "type": "uint256"
        }
      ],
      "stateMutability": "view",
      "type": "function"
    },
    {
      "inputs": [
        {
          "internalType": "string",
          "name": "",
          "type": "string"
        }
      ],
      "name": "domains",
      "outputs": [
        {
          "internalType": "address",
          "name": "",
          "type": "address"
        }
      ],
      "stateMutability": "view",
      "type": "function"
    },
    {
      "inputs": [
        {
          "internalType": "string",
          "name": "_name",
          "type": "string"
        }
      ],
      "name": "getAddress",
      "outputs": [
        {
          "internalType": "address",
          "name": "",
          "type": "address"
        }
      ],
      "stateMutability": "view",
      "type": "function"
    },
    {
      "inputs": [
        {
          "internalType": "uint256",
          "name": "tokenId",
          "type": "uint256"
        }
      ],
      "name": "getApproved",
      "outputs": [
        {
          "internalType": "address",
          "name": "",
          "type": "address"
        }
      ],
      "stateMutability": "view",
      "type": "function"
    },
    {
      "inputs": [
        {
          "internalType": "address",
          "name": "owner",
          "type": "address"
        },
        {
          "internalType": "address",
          "name": "operator",
          "type": "address"
        }
      ],
      "name": "isApprovedForAll",
      "outputs": [
        {
          "internalType": "bool",
          "name": "",
          "type": "bool"
        }
      ],
      "stateMutability": "view",
      "type": "function"
    },
    {
      "inputs": [],
      "name": "name",
      "outputs": [
        {
          "internalType": "string",
          "name": "",
          "type": "string"
        }
      ],
      "stateMutability": "view",
      "type": "function"
    },
    {
      "inputs": [
        {
          "internalType": "uint256",
          "name": "tokenId",
          "type": "uint256"
        }
      ],
      "name": "ownerOf",
      "outputs": [
        {
          "internalType": "address",
          "name": "",
          "type": "address"
        }
      ],
      "stateMutability": "view",
      "type": "function"
    },
    {
      "inputs": [
        {
          "internalType": "string",
          "name": "_name",
          "type": "string"
        }
      ],
      "name": "price",
      "outputs": [
        {
          "internalType": "uint256",
          "name": "",
          "type": "uint256"
        }
      ],
      "stateMutability": "pure",
      "type": "function"
    },
    {
      "inputs": [
        {
          "internalType": "string",
          "name": "",
          "type": "string"
        }
      ],
      "name": "records",
      "outputs": [
        {
          "internalType": "string",
          "name": "",
          "type": "string"
        }
      ],
      "stateMutability": "view",
      "type": "function"
    },
    {
      "inputs": [
        {
          "internalType": "string",
          "name": "_name",
          "type": "string"
        }
      ],
      "name": "registerName",
      "outputs": [],
      "stateMutability": "payable",
      "type": "function"
    },
    {
      "inputs": [
        {
          "internalType": "address",
          "name": "from",
          "type": "address"
        },
        {
          "internalType": "address",
          "name": "to",
          "type": "address"
        },
        {
          "internalType": "uint256",
          "name": "tokenId",
          "type": "uint256"
        }
      ],
      "name": "safeTransferFrom",
      "outputs": [],
      "stateMutability": "nonpayable",
      "type": "function"
    },
    {
      "inputs": [
        {
          "internalType": "address",
          "name": "from",
          "type": "address"
        },
        {
          "internalType": "address",
          "name": "to",
          "type": "address"
        },
        {
          "internalType": "uint256",
          "name": "tokenId",
          "type": "uint256"
        },
        {
          "internalType": "bytes",
          "name": "_data",
          "type": "bytes"
        }
      ],
      "name": "safeTransferFrom",
      "outputs": [],
      "stateMutability": "nonpayable",
      "type": "function"
    },
    {
      "inputs": [
        {
          "internalType": "address",
          "name": "operator",
          "type": "address"
        },
        {
          "internalType": "bool",
          "name": "approved",
          "type": "bool"
        }
      ],
      "name": "setApprovalForAll",
      "outputs": [],
      "stateMutability": "nonpayable",
      "type": "function"
    },
    {
      "inputs": [
        {
          "internalType": "string",
          "name": "_name",
          "type": "string"
        },
        {
          "internalType": "string",
          "name": "_record",
          "type": "string"
        }
      ],
      "name": "setRecord",
      "outputs": [],
      "stateMutability": "nonpayable",
      "type": "function"
    },
    {
      "inputs": [
        {
          "internalType": "bytes4",
          "name": "interfaceId",
          "type": "bytes4"
        }
      ],
      "name": "supportsInterface",
      "outputs": [
        {
          "internalType": "bool",
          "name": "",
          "type": "bool"
        }
      ],
      "stateMutability": "view",
      "type": "function"
    },
    {
      "inputs": [],
      "name": "symbol",
      "outputs": [
        {
          "internalType": "string",
          "name": "",
          "type": "string"
        }
      ],
      "stateMutability": "view",
      "type": "function"
    },
    {
      "inputs": [],
      "name": "tld",
      "outputs": [
        {
          "internalType": "string",
          "name": "",
          "type": "string"
        }
      ],
      "stateMutability": "view",
      "type": "function"
    },
    {
      "inputs": [
        {
          "internalType": "uint256",
          "name": "tokenId",
          "type": "uint256"
        }
      ],
      "name": "tokenURI",
      "outputs": [
        {
          "internalType": "string",
          "name": "",
          "type": "string"
        }
      ],
      "stateMutability": "view",
      "type": "function"
    },
    {
      "inputs": [
        {
          "internalType": "address",
          "name": "from",
          "type": "address"
        },
        {
          "internalType": "address",
          "name": "to",
          "type": "address"
        },
        {
          "internalType": "uint256",
          "name": "tokenId",
          "type": "uint256"
        }
      ],
      "name": "transferFrom",
      "outputs": [],
      "stateMutability": "nonpayable",
      "type": "function"
    }
  ],
  "bytecode": "0x6080604052604051806108a0016040528061086b815260200162004a5361086b9139600990805190602001906200003892919062000287565b506040518060400160405280600d81526020017f3c2f746578743e3c2f7376673e00000000000000000000000000000000000000815250600a90805190602001906200008692919062000287565b50604051620052be380380620052be8339818101604052810190620000ac9190620004d4565b6040518060400160405280601181526020017f4d656d65204e616d6520536572766963650000000000000000000000000000008152506040518060400160405280600381526020017f4d4e53000000000000000000000000000000000000000000000000000000000081525081600090805190602001906200013092919062000287565b5080600190805190602001906200014992919062000287565b50505080600890805190602001906200016492919062000287565b50620001b16040518060400160405280601881526020017f2573206e616d652073657276696365206465706c6f796564000000000000000081525082620001b860201b620014b51760201c565b5062000622565b6200025a8282604051602401620001d192919062000582565b6040516020818303038152906040527f4b5c4277000000000000000000000000000000000000000000000000000000007bffffffffffffffffffffffffffffffffffffffffffffffffffffffff19166020820180517bffffffffffffffffffffffffffffffffffffffffffffffffffffffff83818316178352505050506200025e60201b60201c565b5050565b60008151905060006a636f6e736f6c652e6c6f679050602083016000808483855afa5050505050565b8280546200029590620005ec565b90600052602060002090601f016020900481019282620002b9576000855562000305565b82601f10620002d457805160ff191683800117855562000305565b8280016001018555821562000305579182015b8281111562000304578251825591602001919060010190620002e7565b5b50905062000314919062000318565b5090565b5b808211156200033357600081600090555060010162000319565b5090565b6000604051905090565b600080fd5b600080fd5b600080fd5b600080fd5b6000601f19601f8301169050919050565b7f4e487b7100000000000000000000000000000000000000000000000000000000600052604160045260246000fd5b620003a08262000355565b810181811067ffffffffffffffff82111715620003c257620003c162000366565b5b80604052505050565b6000620003d762000337565b9050620003e5828262000395565b919050565b600067ffffffffffffffff82111562000408576200040762000366565b5b620004138262000355565b9050602081019050919050565b60005b838110156200044057808201518184015260208101905062000423565b8381111562000450576000848401525b50505050565b60006200046d6200046784620003ea565b620003cb565b9050828152602081018484840111156200048c576200048b62000350565b5b6200049984828562000420565b509392505050565b600082601f830112620004b957620004b86200034b565b5b8151620004cb84826020860162000456565b91505092915050565b600060208284031215620004ed57620004ec62000341565b5b600082015167ffffffffffffffff8111156200050e576200050d62000346565b5b6200051c84828501620004a1565b91505092915050565b600081519050919050565b600082825260208201905092915050565b60006200054e8262000525565b6200055a818562000530565b93506200056c81856020860162000420565b620005778162000355565b840191505092915050565b600060408201905081810360008301526200059e818562000541565b90508181036020830152620005b4818462000541565b90509392505050565b7f4e487b7100000000000000000000000000000000000000000000000000000000600052602260045260246000fd5b600060028204905060018216806200060557607f821691505b602082108114156200061c576200061b620005bd565b5b50919050565b61442180620006326000396000f3fe60806040526004361061011f5760003560e01c80636352211e116100a0578063bf40fac111610064578063bf40fac1146103fc578063c1880a9814610439578063c87b56dd14610462578063e985e9c51461049f578063fe2c6198146104dc5761011f565b80636352211e1461030557806370a082311461034257806395d89b411461037f578063a22cb465146103aa578063b88d4fde146103d35761011f565b806323b872dd116100e757806323b872dd1461020e57806326449235146102375780632d5514321461027457806342842e0e1461029f578063541e771d146102c85761011f565b806301ffc9a71461012457806306fdde0314610161578063081812fc1461018c5780630830602b146101c9578063095ea7b3146101e5575b600080fd5b34801561013057600080fd5b5061014b600480360381019061014691906128fb565b610519565b6040516101589190612943565b60405180910390f35b34801561016d57600080fd5b506101766105fb565b60405161018391906129f7565b60405180910390f35b34801561019857600080fd5b506101b360048036038101906101ae9190612a4f565b61068d565b6040516101c09190612abd565b60405180910390f35b6101e360048036038101906101de9190612b3d565b610712565b005b3480156101f157600080fd5b5061020c60048036038101906102079190612bb6565b610b2b565b005b34801561021a57600080fd5b5061023560048036038101906102309190612bf6565b610c43565b005b34801561024357600080fd5b5061025e60048036038101906102599190612d79565b610ca3565b60405161026b9190612abd565b60405180910390f35b34801561028057600080fd5b50610289610cec565b60405161029691906129f7565b60405180910390f35b3480156102ab57600080fd5b506102c660048036038101906102c19190612bf6565b610d7a565b005b3480156102d457600080fd5b506102ef60048036038101906102ea9190612d79565b610d9a565b6040516102fc91906129f7565b60405180910390f35b34801561031157600080fd5b5061032c60048036038101906103279190612a4f565b610e50565b6040516103399190612abd565b60405180910390f35b34801561034e57600080fd5b5061036960048036038101906103649190612dc2565b610f02565b6040516103769190612dfe565b60405180910390f35b34801561038b57600080fd5b50610394610fba565b6040516103a191906129f7565b60405180910390f35b3480156103b657600080fd5b506103d160048036038101906103cc9190612e45565b61104c565b005b3480156103df57600080fd5b506103fa60048036038101906103f59190612f26565b611062565b005b34801561040857600080fd5b50610423600480360381019061041e9190612b3d565b6110c4565b6040516104309190612abd565b60405180910390f35b34801561044557600080fd5b50610460600480360381019061045b9190612fa9565b61110f565b005b34801561046e57600080fd5b5061048960048036038101906104849190612a4f565b6111f3565b60405161049691906129f7565b60405180910390f35b3480156104ab57600080fd5b506104c660048036038101906104c1919061302a565b611345565b6040516104d39190612943565b60405180910390f35b3480156104e857600080fd5b5061050360048036038101906104fe9190612b3d565b6113d9565b6040516105109190612dfe565b60405180910390f35b60007f80ac58cd000000000000000000000000000000000000000000000000000000007bffffffffffffffffffffffffffffffffffffffffffffffffffffffff1916827bffffffffffffffffffffffffffffffffffffffffffffffffffffffff191614806105e457507f5b5e139f000000000000000000000000000000000000000000000000000000007bffffffffffffffffffffffffffffffffffffffffffffffffffffffff1916827bffffffffffffffffffffffffffffffffffffffffffffffffffffffff1916145b806105f457506105f382611551565b5b9050919050565b60606000805461060a90613099565b80601f016020809104026020016040519081016040528092919081815260200182805461063690613099565b80156106835780601f1061065857610100808354040283529160200191610683565b820191906000526020600020905b81548152906001019060200180831161066657829003601f168201915b5050505050905090565b6000610698826115bb565b6106d7576040517f08c379a00000000000000000000000000000000000000000000000000000000081526004016106ce9061313d565b60405180910390fd5b6004600083815260200190815260200160002060009054906101000a900473ffffffffffffffffffffffffffffffffffffffff169050919050565b600073ffffffffffffffffffffffffffffffffffffffff16600b838360405161073c92919061318d565b908152602001604051809103902060009054906101000a900473ffffffffffffffffffffffffffffffffffffffff1673ffffffffffffffffffffffffffffffffffffffff16146107c1576040517f08c379a00000000000000000000000000000000000000000000000000000000081526004016107b8906131f2565b60405180910390fd5b60006107cd83836113d9565b905080341015610812576040517f08c379a00000000000000000000000000000000000000000000000000000000081526004016108099061325e565b60405180910390fd5b60008383600860405160200161082a9392919061335e565b60405160208183030381529060405290506000600982600a604051602001610854939291906133c0565b604051602081830303815290604052905060006108716007611627565b905060006108c287878080601f016020809104026020016040519081016040528093929190818152602001838380828437600081840152601f19601f82011690508083019250505050505050611635565b905060006108cf826117ea565b90506109c36040518060600160405280603181526020016143426031913989898080601f016020809104026020016040519081016040528093929190818152602001838380828437600081840152601f19601f820116905080830192505050505050506008805461093f90613099565b80601f016020809104026020016040519081016040528092919081815260200182805461096b90613099565b80156109b85780601f1061098d576101008083540402835291602001916109b8565b820191906000526020600020905b81548152906001019060200180831161099b57829003601f168201915b50505050508661194b565b60006109fb89896109d3886119ed565b856040516020016109e7949392919061356d565b6040516020818303038152906040526119ed565b9050600081604051602001610a109190613618565b6040516020818303038152906040529050610a4260405180606001604052806039815260200161430960399139611b85565b610a816040518060400160405280600e81526020017f46696e616c20746f6b656e555249000000000000000000000000000000000000815250826114b5565b610aa260405180606001604052806039815260200161437360399139611b85565b610aac3386611c1e565b610ab68582611c3c565b33600b8b8b604051610ac992919061318d565b908152602001604051809103902060006101000a81548173ffffffffffffffffffffffffffffffffffffffff021916908373ffffffffffffffffffffffffffffffffffffffff160217905550610b1f6007611cb0565b50505050505050505050565b6000610b3682610e50565b90508073ffffffffffffffffffffffffffffffffffffffff168373ffffffffffffffffffffffffffffffffffffffff161415610ba7576040517f08c379a0000000000000000000000000000000000000000000000000000000008152600401610b9e906136ac565b60405180910390fd5b8073ffffffffffffffffffffffffffffffffffffffff16610bc6611cc6565b73ffffffffffffffffffffffffffffffffffffffff161480610bf55750610bf481610bef611cc6565b611345565b5b610c34576040517f08c379a0000000000000000000000000000000000000000000000000000000008152600401610c2b9061373e565b60405180910390fd5b610c3e8383611cce565b505050565b610c54610c4e611cc6565b82611d87565b610c93576040517f08c379a0000000000000000000000000000000000000000000000000000000008152600401610c8a906137d0565b60405180910390fd5b610c9e838383611e65565b505050565b600b818051602081018201805184825260208301602085012081835280955050505050506000915054906101000a900473ffffffffffffffffffffffffffffffffffffffff1681565b60088054610cf990613099565b80601f0160208091040260200160405190810160405280929190818152602001828054610d2590613099565b8015610d725780601f10610d4757610100808354040283529160200191610d72565b820191906000526020600020905b815481529060010190602001808311610d5557829003601f168201915b505050505081565b610d9583838360405180602001604052806000815250611062565b505050565b600c818051602081018201805184825260208301602085012081835280955050505050506000915090508054610dcf90613099565b80601f0160208091040260200160405190810160405280929190818152602001828054610dfb90613099565b8015610e485780601f10610e1d57610100808354040283529160200191610e48565b820191906000526020600020905b815481529060010190602001808311610e2b57829003601f168201915b505050505081565b6000806002600084815260200190815260200160002060009054906101000a900473ffffffffffffffffffffffffffffffffffffffff169050600073ffffffffffffffffffffffffffffffffffffffff168173ffffffffffffffffffffffffffffffffffffffff161415610ef9576040517f08c379a0000000000000000000000000000000000000000000000000000000008152600401610ef090613862565b60405180910390fd5b80915050919050565b60008073ffffffffffffffffffffffffffffffffffffffff168273ffffffffffffffffffffffffffffffffffffffff161415610f73576040517f08c379a0000000000000000000000000000000000000000000000000000000008152600401610f6a906138f4565b60405180910390fd5b600360008373ffffffffffffffffffffffffffffffffffffffff1673ffffffffffffffffffffffffffffffffffffffff168152602001908152602001600020549050919050565b606060018054610fc990613099565b80601f0160208091040260200160405190810160405280929190818152602001828054610ff590613099565b80156110425780601f1061101757610100808354040283529160200191611042565b820191906000526020600020905b81548152906001019060200180831161102557829003601f168201915b5050505050905090565b61105e611057611cc6565b83836120cc565b5050565b61107361106d611cc6565b83611d87565b6110b2576040517f08c379a00000000000000000000000000000000000000000000000000000000081526004016110a9906137d0565b60405180910390fd5b6110be84848484612239565b50505050565b6000600b83836040516110d892919061318d565b908152602001604051809103902060009054906101000a900473ffffffffffffffffffffffffffffffffffffffff16905092915050565b3373ffffffffffffffffffffffffffffffffffffffff16600b858560405161113892919061318d565b908152602001604051809103902060009054906101000a900473ffffffffffffffffffffffffffffffffffffffff1673ffffffffffffffffffffffffffffffffffffffff16146111bd576040517f08c379a00000000000000000000000000000000000000000000000000000000081526004016111b490613986565b60405180910390fd5b8181600c86866040516111d192919061318d565b908152602001604051809103902091906111ec929190612766565b5050505050565b60606111fe826115bb565b61123d576040517f08c379a000000000000000000000000000000000000000000000000000000000815260040161123490613a18565b60405180910390fd5b600060066000848152602001908152602001600020805461125d90613099565b80601f016020809104026020016040519081016040528092919081815260200182805461128990613099565b80156112d65780601f106112ab576101008083540402835291602001916112d6565b820191906000526020600020905b8154815290600101906020018083116112b957829003601f168201915b5050505050905060006112e7612295565b90506000815114156112fd578192505050611340565b60008251111561133257808260405160200161131a929190613a38565b60405160208183030381529060405292505050611340565b61133b846122ac565b925050505b919050565b6000600560008473ffffffffffffffffffffffffffffffffffffffff1673ffffffffffffffffffffffffffffffffffffffff16815260200190815260200160002060008373ffffffffffffffffffffffffffffffffffffffff1673ffffffffffffffffffffffffffffffffffffffff16815260200190815260200160002060009054906101000a900460ff16905092915050565b60008061142984848080601f016020809104026020016040519081016040528093929190818152602001838380828437600081840152601f19601f82011690508083019250505050505050611635565b90506000811161146e576040517f08c379a000000000000000000000000000000000000000000000000000000000815260040161146590613aa8565b60405180910390fd5b6003811415611488576706f05b59d3b200009150506114af565b60048114156114a257670429d069189e00009150506114af565b67016345785d8a00009150505b92915050565b61154d82826040516024016114cb929190613ac8565b6040516020818303038152906040527f4b5c4277000000000000000000000000000000000000000000000000000000007bffffffffffffffffffffffffffffffffffffffffffffffffffffffff19166020820180517bffffffffffffffffffffffffffffffffffffffffffffffffffffffff8381831617835250505050612353565b5050565b60007f01ffc9a7000000000000000000000000000000000000000000000000000000007bffffffffffffffffffffffffffffffffffffffffffffffffffffffff1916827bffffffffffffffffffffffffffffffffffffffffffffffffffffffff1916149050919050565b60008073ffffffffffffffffffffffffffffffffffffffff166002600084815260200190815260200160002060009054906101000a900473ffffffffffffffffffffffffffffffffffffffff1673ffffffffffffffffffffffffffffffffffffffff1614159050919050565b600081600001549050919050565b60008060008084519050600092505b808210156117df57600085838151811061166157611660613aff565b5b602001015160f81c60f81b9050608060f81b817effffffffffffffffffffffffffffffffffffffffffffffffffffffffffffff191610156116b0576001836116a99190613b5d565b92506117cb565b60e060f81b817effffffffffffffffffffffffffffffffffffffffffffffffffffffffffffff191610156116f2576002836116eb9190613b5d565b92506117ca565b60f060f81b817effffffffffffffffffffffffffffffffffffffffffffffffffffffffffffff191610156117345760038361172d9190613b5d565b92506117c9565b60f8801b817effffffffffffffffffffffffffffffffffffffffffffffffffffffffffffff191610156117755760048361176e9190613b5d565b92506117c8565b60fc60f81b817effffffffffffffffffffffffffffffffffffffffffffffffffffffffffffff191610156117b7576005836117b09190613b5d565b92506117c7565b6006836117c49190613b5d565b92505b5b5b5b5b5082806117d790613bb3565b935050611644565b829350505050919050565b60606000821415611832576040518060400160405280600181526020017f30000000000000000000000000000000000000000000000000000000000000008152509050611946565b600082905060005b6000821461186457808061184d90613bb3565b915050600a8261185d9190613c2b565b915061183a565b60008167ffffffffffffffff8111156118805761187f612c4e565b5b6040519080825280601f01601f1916602001820160405280156118b25781602001600182028036833780820191505090505b5090505b6000851461193f576001826118cb9190613c5c565b9150600a856118da9190613c90565b60306118e69190613b5d565b60f81b8183815181106118fc576118fb613aff565b5b60200101907effffffffffffffffffffffffffffffffffffffffffffffffffffffffffffff1916908160001a905350600a856119389190613c2b565b94506118b6565b8093505050505b919050565b6119e7848484846040516024016119659493929190613cc1565b6040516020818303038152906040527f9fd009f5000000000000000000000000000000000000000000000000000000007bffffffffffffffffffffffffffffffffffffffffffffffffffffffff19166020820180517bffffffffffffffffffffffffffffffffffffffffffffffffffffffff8381831617835250505050612353565b50505050565b60606000825190506000811415611a165760405180602001604052806000815250915050611b80565b60006003600283611a279190613b5d565b611a319190613c2b565b6004611a3d9190613d1b565b90506000602082611a4e9190613b5d565b67ffffffffffffffff811115611a6757611a66612c4e565b5b6040519080825280601f01601f191660200182016040528015611a995781602001600182028036833780820191505090505b50905060006040518060600160405280604081526020016143ac604091399050600181016020830160005b86811015611b3d5760038101905062ffffff818a015116603f8160121c168401518060081b905060ff603f83600c1c1686015116810190508060081b905060ff603f8360061c1686015116810190508060081b905060ff603f831686015116810190508060e01b90508084526004840193505050611ac4565b506003860660018114611b575760028114611b6757611b72565b613d3d60f01b6002830352611b72565b603d60f81b60018303525b508484525050819450505050505b919050565b611c1b81604051602401611b9991906129f7565b6040516020818303038152906040527f41304fac000000000000000000000000000000000000000000000000000000007bffffffffffffffffffffffffffffffffffffffffffffffffffffffff19166020820180517bffffffffffffffffffffffffffffffffffffffffffffffffffffffff8381831617835250505050612353565b50565b611c3882826040518060200160405280600081525061237c565b5050565b611c45826115bb565b611c84576040517f08c379a0000000000000000000000000000000000000000000000000000000008152600401611c7b90613de7565b60405180910390fd5b80600660008481526020019081526020016000209080519060200190611cab9291906127ec565b505050565b6001816000016000828254019250508190555050565b600033905090565b816004600083815260200190815260200160002060006101000a81548173ffffffffffffffffffffffffffffffffffffffff021916908373ffffffffffffffffffffffffffffffffffffffff160217905550808273ffffffffffffffffffffffffffffffffffffffff16611d4183610e50565b73ffffffffffffffffffffffffffffffffffffffff167f8c5be1e5ebec7d5bd14f71427d1e84f3dd0314c0f7b2291e5b200ac8c7c3b92560405160405180910390a45050565b6000611d92826115bb565b611dd1576040517f08c379a0000000000000000000000000000000000000000000000000000000008152600401611dc890613e79565b60405180910390fd5b6000611ddc83610e50565b90508073ffffffffffffffffffffffffffffffffffffffff168473ffffffffffffffffffffffffffffffffffffffff161480611e4b57508373ffffffffffffffffffffffffffffffffffffffff16611e338461068d565b73ffffffffffffffffffffffffffffffffffffffff16145b80611e5c5750611e5b8185611345565b5b91505092915050565b8273ffffffffffffffffffffffffffffffffffffffff16611e8582610e50565b73ffffffffffffffffffffffffffffffffffffffff1614611edb576040517f08c379a0000000000000000000000000000000000000000000000000000000008152600401611ed290613f0b565b60405180910390fd5b600073ffffffffffffffffffffffffffffffffffffffff168273ffffffffffffffffffffffffffffffffffffffff161415611f4b576040517f08c379a0000000000000000000000000000000000000000000000000000000008152600401611f4290613f9d565b60405180910390fd5b611f568383836123d7565b611f61600082611cce565b6001600360008573ffffffffffffffffffffffffffffffffffffffff1673ffffffffffffffffffffffffffffffffffffffff1681526020019081526020016000206000828254611fb19190613c5c565b925050819055506001600360008473ffffffffffffffffffffffffffffffffffffffff1673ffffffffffffffffffffffffffffffffffffffff16815260200190815260200160002060008282546120089190613b5d565b92505081905550816002600083815260200190815260200160002060006101000a81548173ffffffffffffffffffffffffffffffffffffffff021916908373ffffffffffffffffffffffffffffffffffffffff160217905550808273ffffffffffffffffffffffffffffffffffffffff168473ffffffffffffffffffffffffffffffffffffffff167fddf252ad1be2c89b69c2b068fc378daa952ba7f163c4a11628f55a4df523b3ef60405160405180910390a46120c78383836123dc565b505050565b8173ffffffffffffffffffffffffffffffffffffffff168373ffffffffffffffffffffffffffffffffffffffff16141561213b576040517f08c379a000000000000000000000000000000000000000000000000000000000815260040161213290614009565b60405180910390fd5b80600560008573ffffffffffffffffffffffffffffffffffffffff1673ffffffffffffffffffffffffffffffffffffffff16815260200190815260200160002060008473ffffffffffffffffffffffffffffffffffffffff1673ffffffffffffffffffffffffffffffffffffffff16815260200190815260200160002060006101000a81548160ff0219169083151502179055508173ffffffffffffffffffffffffffffffffffffffff168373ffffffffffffffffffffffffffffffffffffffff167f17307eab39ab6107e8899845ad3d59bd9653f200f220920489ca2b5937696c318360405161222c9190612943565b60405180910390a3505050565b612244848484611e65565b612250848484846123e1565b61228f576040517f08c379a00000000000000000000000000000000000000000000000000000000081526004016122869061409b565b60405180910390fd5b50505050565b606060405180602001604052806000815250905090565b60606122b7826115bb565b6122f6576040517f08c379a00000000000000000000000000000000000000000000000000000000081526004016122ed9061412d565b60405180910390fd5b6000612300612295565b90506000815111612320576040518060200160405280600081525061234b565b8061232a846117ea565b60405160200161233b929190613a38565b6040516020818303038152906040525b915050919050565b60008151905060006a636f6e736f6c652e6c6f679050602083016000808483855afa5050505050565b6123868383612569565b61239360008484846123e1565b6123d2576040517f08c379a00000000000000000000000000000000000000000000000000000000081526004016123c99061409b565b60405180910390fd5b505050565b505050565b505050565b60006124028473ffffffffffffffffffffffffffffffffffffffff16612743565b1561255c578373ffffffffffffffffffffffffffffffffffffffff1663150b7a0261242b611cc6565b8786866040518563ffffffff1660e01b815260040161244d94939291906141a2565b6020604051808303816000875af192505050801561248957506040513d601f19601f820116820180604052508101906124869190614203565b60015b61250c573d80600081146124b9576040519150601f19603f3d011682016040523d82523d6000602084013e6124be565b606091505b50600081511415612504576040517f08c379a00000000000000000000000000000000000000000000000000000000081526004016124fb9061409b565b60405180910390fd5b805181602001fd5b63150b7a0260e01b7bffffffffffffffffffffffffffffffffffffffffffffffffffffffff1916817bffffffffffffffffffffffffffffffffffffffffffffffffffffffff191614915050612561565b600190505b949350505050565b600073ffffffffffffffffffffffffffffffffffffffff168273ffffffffffffffffffffffffffffffffffffffff1614156125d9576040517f08c379a00000000000000000000000000000000000000000000000000000000081526004016125d09061427c565b60405180910390fd5b6125e2816115bb565b15612622576040517f08c379a0000000000000000000000000000000000000000000000000000000008152600401612619906142e8565b60405180910390fd5b61262e600083836123d7565b6001600360008473ffffffffffffffffffffffffffffffffffffffff1673ffffffffffffffffffffffffffffffffffffffff168152602001908152602001600020600082825461267e9190613b5d565b92505081905550816002600083815260200190815260200160002060006101000a81548173ffffffffffffffffffffffffffffffffffffffff021916908373ffffffffffffffffffffffffffffffffffffffff160217905550808273ffffffffffffffffffffffffffffffffffffffff16600073ffffffffffffffffffffffffffffffffffffffff167fddf252ad1be2c89b69c2b068fc378daa952ba7f163c4a11628f55a4df523b3ef60405160405180910390a461273f600083836123dc565b5050565b6000808273ffffffffffffffffffffffffffffffffffffffff163b119050919050565b82805461277290613099565b90600052602060002090601f01602090048101928261279457600085556127db565b82601f106127ad57803560ff19168380011785556127db565b828001600101855582156127db579182015b828111156127da5782358255916020019190600101906127bf565b5b5090506127e89190612872565b5090565b8280546127f890613099565b90600052602060002090601f01602090048101928261281a5760008555612861565b82601f1061283357805160ff1916838001178555612861565b82800160010185558215612861579182015b82811115612860578251825591602001919060010190612845565b5b50905061286e9190612872565b5090565b5b8082111561288b576000816000905550600101612873565b5090565b6000604051905090565b600080fd5b600080fd5b60007fffffffff0000000000000000000000000000000000000000000000000000000082169050919050565b6128d8816128a3565b81146128e357600080fd5b50565b6000813590506128f5816128cf565b92915050565b60006020828403121561291157612910612899565b5b600061291f848285016128e6565b91505092915050565b60008115159050919050565b61293d81612928565b82525050565b60006020820190506129586000830184612934565b92915050565b600081519050919050565b600082825260208201905092915050565b60005b8381101561299857808201518184015260208101905061297d565b838111156129a7576000848401525b50505050565b6000601f19601f8301169050919050565b60006129c98261295e565b6129d38185612969565b93506129e381856020860161297a565b6129ec816129ad565b840191505092915050565b60006020820190508181036000830152612a1181846129be565b905092915050565b6000819050919050565b612a2c81612a19565b8114612a3757600080fd5b50565b600081359050612a4981612a23565b92915050565b600060208284031215612a6557612a64612899565b5b6000612a7384828501612a3a565b91505092915050565b600073ffffffffffffffffffffffffffffffffffffffff82169050919050565b6000612aa782612a7c565b9050919050565b612ab781612a9c565b82525050565b6000602082019050612ad26000830184612aae565b92915050565b600080fd5b600080fd5b600080fd5b60008083601f840112612afd57612afc612ad8565b5b8235905067ffffffffffffffff811115612b1a57612b19612add565b5b602083019150836001820283011115612b3657612b35612ae2565b5b9250929050565b60008060208385031215612b5457612b53612899565b5b600083013567ffffffffffffffff811115612b7257612b7161289e565b5b612b7e85828601612ae7565b92509250509250929050565b612b9381612a9c565b8114612b9e57600080fd5b50565b600081359050612bb081612b8a565b92915050565b60008060408385031215612bcd57612bcc612899565b5b6000612bdb85828601612ba1565b9250506020612bec85828601612a3a565b9150509250929050565b600080600060608486031215612c0f57612c0e612899565b5b6000612c1d86828701612ba1565b9350506020612c2e86828701612ba1565b9250506040612c3f86828701612a3a565b9150509250925092565b600080fd5b7f4e487b7100000000000000000000000000000000000000000000000000000000600052604160045260246000fd5b612c86826129ad565b810181811067ffffffffffffffff82111715612ca557612ca4612c4e565b5b80604052505050565b6000612cb861288f565b9050612cc48282612c7d565b919050565b600067ffffffffffffffff821115612ce457612ce3612c4e565b5b612ced826129ad565b9050602081019050919050565b82818337600083830152505050565b6000612d1c612d1784612cc9565b612cae565b905082815260208101848484011115612d3857612d37612c49565b5b612d43848285612cfa565b509392505050565b600082601f830112612d6057612d5f612ad8565b5b8135612d70848260208601612d09565b91505092915050565b600060208284031215612d8f57612d8e612899565b5b600082013567ffffffffffffffff811115612dad57612dac61289e565b5b612db984828501612d4b565b91505092915050565b600060208284031215612dd857612dd7612899565b5b6000612de684828501612ba1565b91505092915050565b612df881612a19565b82525050565b6000602082019050612e136000830184612def565b92915050565b612e2281612928565b8114612e2d57600080fd5b50565b600081359050612e3f81612e19565b92915050565b60008060408385031215612e5c57612e5b612899565b5b6000612e6a85828601612ba1565b9250506020612e7b85828601612e30565b9150509250929050565b600067ffffffffffffffff821115612ea057612e9f612c4e565b5b612ea9826129ad565b9050602081019050919050565b6000612ec9612ec484612e85565b612cae565b905082815260208101848484011115612ee557612ee4612c49565b5b612ef0848285612cfa565b509392505050565b600082601f830112612f0d57612f0c612ad8565b5b8135612f1d848260208601612eb6565b91505092915050565b60008060008060808587031215612f4057612f3f612899565b5b6000612f4e87828801612ba1565b9450506020612f5f87828801612ba1565b9350506040612f7087828801612a3a565b925050606085013567ffffffffffffffff811115612f9157612f9061289e565b5b612f9d87828801612ef8565b91505092959194509250565b60008060008060408587031215612fc357612fc2612899565b5b600085013567ffffffffffffffff811115612fe157612fe061289e565b5b612fed87828801612ae7565b9450945050602085013567ffffffffffffffff8111156130105761300f61289e565b5b61301c87828801612ae7565b925092505092959194509250565b6000806040838503121561304157613040612899565b5b600061304f85828601612ba1565b925050602061306085828601612ba1565b9150509250929050565b7f4e487b7100000000000000000000000000000000000000000000000000000000600052602260045260246000fd5b600060028204905060018216806130b157607f821691505b602082108114156130c5576130c461306a565b5b50919050565b7f4552433732313a20617070726f76656420717565727920666f72206e6f6e657860008201527f697374656e7420746f6b656e0000000000000000000000000000000000000000602082015250565b6000613127602c83612969565b9150613132826130cb565b604082019050919050565b600060208201905081810360008301526131568161311a565b9050919050565b600081905092915050565b6000613174838561315d565b9350613181838584612cfa565b82840190509392505050565b600061319a828486613168565b91508190509392505050565b7f446f6d61696e204e616d6520616c726561647920726567697374657265640000600082015250565b60006131dc601e83612969565b91506131e7826131a6565b602082019050919050565b6000602082019050818103600083015261320b816131cf565b9050919050565b7f4e6f7420656e6f756768204d6174696320706169640000000000000000000000600082015250565b6000613248601583612969565b915061325382613212565b602082019050919050565b600060208201905081810360008301526132778161323b565b9050919050565b7f2e00000000000000000000000000000000000000000000000000000000000000600082015250565b60006132b460018361315d565b91506132bf8261327e565b600182019050919050565b60008190508160005260206000209050919050565b600081546132ec81613099565b6132f6818661315d565b94506001821660008114613311576001811461332257613355565b60ff19831686528186019350613355565b61332b856132ca565b60005b8381101561334d5781548189015260018201915060208101905061332e565b838801955050505b50505092915050565b600061336b828587613168565b9150613376826132a7565b915061338282846132df565b9150819050949350505050565b600061339a8261295e565b6133a4818561315d565b93506133b481856020860161297a565b80840191505092915050565b60006133cc82866132df565b91506133d8828561338f565b91506133e482846132df565b9150819050949350505050565b7f7b226e616d65223a202200000000000000000000000000000000000000000000600082015250565b6000613427600a8361315d565b9150613432826133f1565b600a82019050919050565b7f222c20226465736372697074696f6e223a20224120646f6d61696e206f6e207460008201527f6865204d656d65204e616d652073657276696365222c2022696d616765223a2060208201527f22646174613a696d6167652f7376672b786d6c3b6261736536342c0000000000604082015250565b60006134bf605b8361315d565b91506134ca8261343d565b605b82019050919050565b7f222c226c656e677468223a220000000000000000000000000000000000000000600082015250565b600061350b600c8361315d565b9150613516826134d5565b600c82019050919050565b7f227d000000000000000000000000000000000000000000000000000000000000600082015250565b600061355760028361315d565b915061356282613521565b600282019050919050565b60006135788261341a565b9150613585828688613168565b9150613590826134b2565b915061359c828561338f565b91506135a7826134fe565b91506135b3828461338f565b91506135be8261354a565b915081905095945050505050565b7f646174613a6170706c69636174696f6e2f6a736f6e3b6261736536342c000000600082015250565b6000613602601d8361315d565b915061360d826135cc565b601d82019050919050565b6000613623826135f5565b915061362f828461338f565b915081905092915050565b7f4552433732313a20617070726f76616c20746f2063757272656e74206f776e6560008201527f7200000000000000000000000000000000000000000000000000000000000000602082015250565b6000613696602183612969565b91506136a18261363a565b604082019050919050565b600060208201905081810360008301526136c581613689565b9050919050565b7f4552433732313a20617070726f76652063616c6c6572206973206e6f74206f7760008201527f6e6572206e6f7220617070726f76656420666f7220616c6c0000000000000000602082015250565b6000613728603883612969565b9150613733826136cc565b604082019050919050565b600060208201905081810360008301526137578161371b565b9050919050565b7f4552433732313a207472616e736665722063616c6c6572206973206e6f74206f60008201527f776e6572206e6f7220617070726f766564000000000000000000000000000000602082015250565b60006137ba603183612969565b91506137c58261375e565b604082019050919050565b600060208201905081810360008301526137e9816137ad565b9050919050565b7f4552433732313a206f776e657220717565727920666f72206e6f6e657869737460008201527f656e7420746f6b656e0000000000000000000000000000000000000000000000602082015250565b600061384c602983612969565b9150613857826137f0565b604082019050919050565b6000602082019050818103600083015261387b8161383f565b9050919050565b7f4552433732313a2062616c616e636520717565727920666f7220746865207a6560008201527f726f206164647265737300000000000000000000000000000000000000000000602082015250565b60006138de602a83612969565b91506138e982613882565b604082019050919050565b6000602082019050818103600083015261390d816138d1565b9050919050565b7f596f7520617265206e6f7420746865206f776e6572206f66207468697320646f60008201527f6d61696e21000000000000000000000000000000000000000000000000000000602082015250565b6000613970602583612969565b915061397b82613914565b604082019050919050565b6000602082019050818103600083015261399f81613963565b9050919050565b7f45524337323155524953746f726167653a2055524920717565727920666f722060008201527f6e6f6e6578697374656e7420746f6b656e000000000000000000000000000000602082015250565b6000613a02603183612969565b9150613a0d826139a6565b604082019050919050565b60006020820190508181036000830152613a31816139f5565b9050919050565b6000613a44828561338f565b9150613a50828461338f565b91508190509392505050565b7f6e616d65206d757374206265206e6f6e2d656d70747900000000000000000000600082015250565b6000613a92601683612969565b9150613a9d82613a5c565b602082019050919050565b60006020820190508181036000830152613ac181613a85565b9050919050565b60006040820190508181036000830152613ae281856129be565b90508181036020830152613af681846129be565b90509392505050565b7f4e487b7100000000000000000000000000000000000000000000000000000000600052603260045260246000fd5b7f4e487b7100000000000000000000000000000000000000000000000000000000600052601160045260246000fd5b6000613b6882612a19565b9150613b7383612a19565b9250827fffffffffffffffffffffffffffffffffffffffffffffffffffffffffffffffff03821115613ba857613ba7613b2e565b5b828201905092915050565b6000613bbe82612a19565b91507fffffffffffffffffffffffffffffffffffffffffffffffffffffffffffffffff821415613bf157613bf0613b2e565b5b600182019050919050565b7f4e487b7100000000000000000000000000000000000000000000000000000000600052601260045260246000fd5b6000613c3682612a19565b9150613c4183612a19565b925082613c5157613c50613bfc565b5b828204905092915050565b6000613c6782612a19565b9150613c7283612a19565b925082821015613c8557613c84613b2e565b5b828203905092915050565b6000613c9b82612a19565b9150613ca683612a19565b925082613cb657613cb5613bfc565b5b828206905092915050565b60006080820190508181036000830152613cdb81876129be565b90508181036020830152613cef81866129be565b90508181036040830152613d0381856129be565b9050613d126060830184612def565b95945050505050565b6000613d2682612a19565b9150613d3183612a19565b9250817fffffffffffffffffffffffffffffffffffffffffffffffffffffffffffffffff0483118215151615613d6a57613d69613b2e565b5b828202905092915050565b7f45524337323155524953746f726167653a2055524920736574206f66206e6f6e60008201527f6578697374656e7420746f6b656e000000000000000000000000000000000000602082015250565b6000613dd1602e83612969565b9150613ddc82613d75565b604082019050919050565b60006020820190508181036000830152613e0081613dc4565b9050919050565b7f4552433732313a206f70657261746f7220717565727920666f72206e6f6e657860008201527f697374656e7420746f6b656e0000000000000000000000000000000000000000602082015250565b6000613e63602c83612969565b9150613e6e82613e07565b604082019050919050565b60006020820190508181036000830152613e9281613e56565b9050919050565b7f4552433732313a207472616e736665722066726f6d20696e636f72726563742060008201527f6f776e6572000000000000000000000000000000000000000000000000000000602082015250565b6000613ef5602583612969565b9150613f0082613e99565b604082019050919050565b60006020820190508181036000830152613f2481613ee8565b9050919050565b7f4552433732313a207472616e7366657220746f20746865207a65726f2061646460008201527f7265737300000000000000000000000000000000000000000000000000000000602082015250565b6000613f87602483612969565b9150613f9282613f2b565b604082019050919050565b60006020820190508181036000830152613fb681613f7a565b9050919050565b7f4552433732313a20617070726f766520746f2063616c6c657200000000000000600082015250565b6000613ff3601983612969565b9150613ffe82613fbd565b602082019050919050565b6000602082019050818103600083015261402281613fe6565b9050919050565b7f4552433732313a207472616e7366657220746f206e6f6e20455243373231526560008201527f63656976657220696d706c656d656e7465720000000000000000000000000000602082015250565b6000614085603283612969565b915061409082614029565b604082019050919050565b600060208201905081810360008301526140b481614078565b9050919050565b7f4552433732314d657461646174613a2055524920717565727920666f72206e6f60008201527f6e6578697374656e7420746f6b656e0000000000000000000000000000000000602082015250565b6000614117602f83612969565b9150614122826140bb565b604082019050919050565b600060208201905081810360008301526141468161410a565b9050919050565b600081519050919050565b600082825260208201905092915050565b60006141748261414d565b61417e8185614158565b935061418e81856020860161297a565b614197816129ad565b840191505092915050565b60006080820190506141b76000830187612aae565b6141c46020830186612aae565b6141d16040830185612def565b81810360608301526141e38184614169565b905095945050505050565b6000815190506141fd816128cf565b92915050565b60006020828403121561421957614218612899565b5b6000614227848285016141ee565b91505092915050565b7f4552433732313a206d696e7420746f20746865207a65726f2061646472657373600082015250565b6000614266602083612969565b915061427182614230565b602082019050919050565b6000602082019050818103600083015261429581614259565b9050919050565b7f4552433732313a20746f6b656e20616c7265616479206d696e74656400000000600082015250565b60006142d2601c83612969565b91506142dd8261429c565b602082019050919050565b60006020820190508181036000830152614301816142c5565b905091905056fe0a2d2d2d2d2d2d2d2d2d2d2d2d2d2d2d2d2d2d2d2d2d2d2d2d2d2d2d2d2d2d2d2d2d2d2d2d2d2d2d2d2d2d2d2d2d2d2d2d2d2d2d2d2d2d2d2d5265676973746572696e672025732e2573206f6e2074686520636f6e7472616374207769746820746f6b656e49442025642d2d2d2d2d2d2d2d2d2d2d2d2d2d2d2d2d2d2d2d2d2d2d2d2d2d2d2d2d2d2d2d2d2d2d2d2d2d2d2d2d2d2d2d2d2d2d2d2d2d2d2d2d2d2d2d0a4142434445464748494a4b4c4d4e4f505152535455565758595a6162636465666768696a6b6c6d6e6f707172737475767778797a303132333435363738392b2fa2646970667358221220feeae9e0fe69c2ce7e7ad026f0df1831e3d480437394512e771122fef2d5063464736f6c634300080a00333c73766720786d6c6e733d22687474703a2f2f7777772e77332e6f72672f323030302f737667222077696474683d2232373022206865696768743d22323730222066696c6c3d226e6f6e65223e3c706174682066696c6c3d2275726c282342292220643d224d302030683237307632373048307a222f3e3c646566733e3c66696c7465722069643d22412220636f6c6f722d696e746572706f6c6174696f6e2d66696c746572733d2273524742222066696c746572556e6974733d227573657253706163654f6e55736522206865696768743d22323730222077696474683d22323730223e3c666544726f70536861646f772064783d2230222064793d22312220737464446576696174696f6e3d22322220666c6f6f642d6f7061636974793d222e323235222077696474683d223230302522206865696768743d2232303025222f3e3c2f66696c7465723e3c2f646566733e3c7061746820643d224d37322e3836332034322e393439632d2e3636382d2e3338372d312e3432362d2e35392d322e3139372d2e3539732d312e3532392e3230342d322e3139372e35396c2d31302e30383120362e3033322d362e383520332e3933342d31302e30383120362e303332632d2e3636382e3338372d312e3432362e35392d322e3139372e3539732d312e3532392d2e3230342d322e3139372d2e35396c2d382e3031332d342e37323161342e353220342e35322030203020312d312e3538392d312e363136632d2e3338342d2e3636352d2e3539342d312e3431382d2e3630382d322e313837762d392e3331632d2e3031332d2e3737352e3138352d312e3533382e3537322d322e32303861342e323520342e323520302030203120312e3632352d312e3539356c372e3838342d342e3539632e3636382d2e33383720312e3432362d2e353920322e3139372d2e353973312e3532392e32303420322e3139372e35396c372e38383420342e353961342e353220342e353220302030203120312e35383920312e363136632e3338342e3636352e35393420312e3431382e36303820322e31383776362e3033326c362e38352d342e303635762d362e303332632e3031332d2e3737352d2e3138352d312e3533382d2e3537322d322e32303861342e323520342e32352030203020302d312e3632352d312e3539354c34312e3435362032342e3539632d2e3636382d2e3338372d312e3432362d2e35392d322e3139372d2e3539732d312e3532392e3230342d322e3139372e35396c2d31342e38363420382e36353561342e323520342e32352030203020302d312e36323520312e353935632d2e3338372e36372d2e35383520312e3433342d2e35373220322e3230387631372e343431632d2e3031332e3737352e31383520312e3533382e35373220322e32303861342e323520342e323520302030203020312e36323520312e3539356c31342e38363420382e363535632e3636382e33383720312e3432362e353920322e3139372e353973312e3532392d2e32303420322e3139372d2e35396c31302e3038312d352e39303120362e38352d342e3036352031302e3038312d352e393031632e3636382d2e33383720312e3432362d2e353920322e3139372d2e353973312e3532392e32303420322e3139372e35396c372e38383420342e353961342e353220342e353220302030203120312e35383920312e363136632e3338342e3636352e35393420312e3431382e36303820322e31383776392e333131632e3031332e3737352d2e31383520312e3533382d2e35373220322e32303861342e323520342e32352030203020312d312e36323520312e3539356c2d372e38383420342e373231632d2e3636382e3338372d312e3432362e35392d322e3139372e3539732d312e3532392d2e3230342d322e3139372d2e35396c2d372e3838342d342e353961342e353220342e35322030203020312d312e3538392d312e363136632d2e3338352d2e3636352d2e3539342d312e3431382d2e3630382d322e313837762d362e3033326c2d362e383520342e30363576362e303332632d2e3031332e3737352e31383520312e3533382e35373220322e32303861342e323520342e323520302030203020312e36323520312e3539356c31342e38363420382e363535632e3636382e33383720312e3432362e353920322e3139372e353973312e3532392d2e32303420322e3139372d2e35396c31342e3836342d382e363535632e3635372d2e33393420312e3230342d2e393520312e3538392d312e363136732e3539342d312e3431382e3630392d322e3138375635352e353338632e3031332d2e3737352d2e3138352d312e3533382d2e3537322d322e32303861342e323520342e32352030203020302d312e3632352d312e3539356c2d31342e3939332d382e3738367a222066696c6c3d2223666666222f3e3c646566733e3c6c696e6561724772616469656e742069643d2242222078313d2230222079313d2230222078323d22323730222079323d2232373022206772616469656e74556e6974733d227573657253706163654f6e557365223e3c73746f702073746f702d636f6c6f723d2223313139393865222f3e3c73746f70206f66667365743d2231222073746f702d636f6c6f723d2223333865663764222073746f702d6f7061636974793d222e3939222f3e3c2f6c696e6561724772616469656e743e3c2f646566733e3c7465787420783d2233322e352220793d223233312220666f6e742d73697a653d223237222066696c6c3d2223666666222066696c7465723d2275726c282341292220666f6e742d66616d696c793d22506c7573204a616b617274612053616e732c44656a6156752053616e732c4e6f746f20436f6c6f7220456d6f6a692c4170706c6520436f6c6f7220456d6f6a692c73616e732d73657269662220666f6e742d7765696768743d22626f6c64223e",
  "linkReferences": {},
  "deployedLinkReferences": {}
}