{
  "_format": "hh-sol-artifact-1",
  "contractName": "Domains",
  "sourceName": "contracts/Domains.sol",
  "abi": [
    {
      "inputs": [
        {
          "internalType": "string",
          "name": "_tld",
          "type": "string"
        }
      ],
      "stateMutability": "payable",
      "type": "constructor"
    },
    {
      "inputs": [],
      "name": "AlreadyRegistered",
      "type": "error"
    },
    {
      "inputs": [
        {
          "internalType": "string",
          "name": "name",
          "type": "string"
        }
      ],
      "name": "InvalidName",
      "type": "error"
    },
    {
      "inputs": [],
      "name": "Unauthorized",
      "type": "error"
    },
    {
      "anonymous": false,
      "inputs": [
        {
          "indexed": true,
          "internalType": "address",
          "name": "owner",
          "type": "address"
        },
        {
          "indexed": true,
          "internalType": "address",
          "name": "approved",
          "type": "address"
        },
        {
          "indexed": true,
          "internalType": "uint256",
          "name": "tokenId",
          "type": "uint256"
        }
      ],
      "name": "Approval",
      "type": "event"
    },
    {
      "anonymous": false,
      "inputs": [
        {
          "indexed": true,
          "internalType": "address",
          "name": "owner",
          "type": "address"
        },
        {
          "indexed": true,
          "internalType": "address",
          "name": "operator",
          "type": "address"
        },
        {
          "indexed": false,
          "internalType": "bool",
          "name": "approved",
          "type": "bool"
        }
      ],
      "name": "ApprovalForAll",
      "type": "event"
    },
    {
      "anonymous": false,
      "inputs": [
        {
          "indexed": true,
          "internalType": "address",
          "name": "from",
          "type": "address"
        },
        {
          "indexed": true,
          "internalType": "address",
          "name": "to",
          "type": "address"
        },
        {
          "indexed": true,
          "internalType": "uint256",
          "name": "tokenId",
          "type": "uint256"
        }
      ],
      "name": "Transfer",
      "type": "event"
    },
    {
      "inputs": [
        {
          "internalType": "address",
          "name": "to",
          "type": "address"
        },
        {
          "internalType": "uint256",
          "name": "tokenId",
          "type": "uint256"
        }
      ],
      "name": "approve",
      "outputs": [],
      "stateMutability": "nonpayable",
      "type": "function"
    },
    {
      "inputs": [
        {
          "internalType": "address",
          "name": "owner",
          "type": "address"
        }
      ],
      "name": "balanceOf",
      "outputs": [
        {
          "internalType": "uint256",
          "name": "",
          "type": "uint256"
        }
      ],
      "stateMutability": "view",
      "type": "function"
    },
    {
      "inputs": [
        {
          "internalType": "string",
          "name": "",
          "type": "string"
        }
      ],
      "name": "domains",
      "outputs": [
        {
          "internalType": "address",
          "name": "",
          "type": "address"
        }
      ],
      "stateMutability": "view",
      "type": "function"
    },
    {
      "inputs": [
        {
          "internalType": "string",
          "name": "_name",
          "type": "string"
        }
      ],
      "name": "getAddress",
      "outputs": [
        {
          "internalType": "address",
          "name": "",
          "type": "address"
        }
      ],
      "stateMutability": "view",
      "type": "function"
    },
    {
      "inputs": [],
      "name": "getAllNames",
      "outputs": [
        {
          "internalType": "string[]",
          "name": "",
          "type": "string[]"
        }
      ],
      "stateMutability": "view",
      "type": "function"
    },
    {
      "inputs": [
        {
          "internalType": "uint256",
          "name": "tokenId",
          "type": "uint256"
        }
      ],
      "name": "getApproved",
      "outputs": [
        {
          "internalType": "address",
          "name": "",
          "type": "address"
        }
      ],
      "stateMutability": "view",
      "type": "function"
    },
    {
      "inputs": [
        {
          "internalType": "address",
          "name": "owner",
          "type": "address"
        },
        {
          "internalType": "address",
          "name": "operator",
          "type": "address"
        }
      ],
      "name": "isApprovedForAll",
      "outputs": [
        {
          "internalType": "bool",
          "name": "",
          "type": "bool"
        }
      ],
      "stateMutability": "view",
      "type": "function"
    },
    {
      "inputs": [],
      "name": "isOwner",
      "outputs": [
        {
          "internalType": "bool",
          "name": "",
          "type": "bool"
        }
      ],
      "stateMutability": "view",
      "type": "function"
    },
    {
      "inputs": [],
      "name": "name",
      "outputs": [
        {
          "internalType": "string",
          "name": "",
          "type": "string"
        }
      ],
      "stateMutability": "view",
      "type": "function"
    },
    {
      "inputs": [
        {
          "internalType": "uint256",
          "name": "",
          "type": "uint256"
        }
      ],
      "name": "names",
      "outputs": [
        {
          "internalType": "string",
          "name": "",
          "type": "string"
        }
      ],
      "stateMutability": "view",
      "type": "function"
    },
    {
      "inputs": [],
      "name": "owner",
      "outputs": [
        {
          "internalType": "address payable",
          "name": "",
          "type": "address"
        }
      ],
      "stateMutability": "view",
      "type": "function"
    },
    {
      "inputs": [
        {
          "internalType": "uint256",
          "name": "tokenId",
          "type": "uint256"
        }
      ],
      "name": "ownerOf",
      "outputs": [
        {
          "internalType": "address",
          "name": "",
          "type": "address"
        }
      ],
      "stateMutability": "view",
      "type": "function"
    },
    {
      "inputs": [
        {
          "internalType": "string",
          "name": "_name",
          "type": "string"
        }
      ],
      "name": "price",
      "outputs": [
        {
          "internalType": "uint256",
          "name": "",
          "type": "uint256"
        }
      ],
      "stateMutability": "pure",
      "type": "function"
    },
    {
      "inputs": [
        {
          "internalType": "string",
          "name": "",
          "type": "string"
        }
      ],
      "name": "records",
      "outputs": [
        {
          "internalType": "string",
          "name": "",
          "type": "string"
        }
      ],
      "stateMutability": "view",
      "type": "function"
    },
    {
      "inputs": [
        {
          "internalType": "string",
          "name": "_name",
          "type": "string"
        }
      ],
      "name": "registerName",
      "outputs": [],
      "stateMutability": "payable",
      "type": "function"
    },
    {
      "inputs": [
        {
          "internalType": "address",
          "name": "from",
          "type": "address"
        },
        {
          "internalType": "address",
          "name": "to",
          "type": "address"
        },
        {
          "internalType": "uint256",
          "name": "tokenId",
          "type": "uint256"
        }
      ],
      "name": "safeTransferFrom",
      "outputs": [],
      "stateMutability": "nonpayable",
      "type": "function"
    },
    {
      "inputs": [
        {
          "internalType": "address",
          "name": "from",
          "type": "address"
        },
        {
          "internalType": "address",
          "name": "to",
          "type": "address"
        },
        {
          "internalType": "uint256",
          "name": "tokenId",
          "type": "uint256"
        },
        {
          "internalType": "bytes",
          "name": "_data",
          "type": "bytes"
        }
      ],
      "name": "safeTransferFrom",
      "outputs": [],
      "stateMutability": "nonpayable",
      "type": "function"
    },
    {
      "inputs": [
        {
          "internalType": "address",
          "name": "operator",
          "type": "address"
        },
        {
          "internalType": "bool",
          "name": "approved",
          "type": "bool"
        }
      ],
      "name": "setApprovalForAll",
      "outputs": [],
      "stateMutability": "nonpayable",
      "type": "function"
    },
    {
      "inputs": [
        {
          "internalType": "string",
          "name": "_name",
          "type": "string"
        },
        {
          "internalType": "string",
          "name": "_record",
          "type": "string"
        }
      ],
      "name": "setRecord",
      "outputs": [],
      "stateMutability": "nonpayable",
      "type": "function"
    },
    {
      "inputs": [
        {
          "internalType": "bytes4",
          "name": "interfaceId",
          "type": "bytes4"
        }
      ],
      "name": "supportsInterface",
      "outputs": [
        {
          "internalType": "bool",
          "name": "",
          "type": "bool"
        }
      ],
      "stateMutability": "view",
      "type": "function"
    },
    {
      "inputs": [],
      "name": "symbol",
      "outputs": [
        {
          "internalType": "string",
          "name": "",
          "type": "string"
        }
      ],
      "stateMutability": "view",
      "type": "function"
    },
    {
      "inputs": [],
      "name": "tld",
      "outputs": [
        {
          "internalType": "string",
          "name": "",
          "type": "string"
        }
      ],
      "stateMutability": "view",
      "type": "function"
    },
    {
      "inputs": [
        {
          "internalType": "uint256",
          "name": "tokenId",
          "type": "uint256"
        }
      ],
      "name": "tokenURI",
      "outputs": [
        {
          "internalType": "string",
          "name": "",
          "type": "string"
        }
      ],
      "stateMutability": "view",
      "type": "function"
    },
    {
      "inputs": [
        {
          "internalType": "address",
          "name": "from",
          "type": "address"
        },
        {
          "internalType": "address",
          "name": "to",
          "type": "address"
        },
        {
          "internalType": "uint256",
          "name": "tokenId",
          "type": "uint256"
        }
      ],
      "name": "transferFrom",
      "outputs": [],
      "stateMutability": "nonpayable",
      "type": "function"
    },
    {
      "inputs": [
        {
          "internalType": "string",
          "name": "_name",
          "type": "string"
        }
      ],
      "name": "valid",
      "outputs": [
        {
          "internalType": "bool",
          "name": "",
          "type": "bool"
        }
      ],
      "stateMutability": "pure",
      "type": "function"
    },
    {
      "inputs": [],
      "name": "withdraw",
      "outputs": [],
      "stateMutability": "nonpayable",
      "type": "function"
    }
  ],
  "bytecode": "0x6080604052604051806108a0016040528061086b81526020016200532f61086b9139600a908051906020019062000038929190620002c8565b506040518060400160405280600d81526020017f3c2f746578743e3c2f7376673e00000000000000000000000000000000000000815250600b908051906020019062000086929190620002c8565b5060405162005b9a38038062005b9a8339818101604052810190620000ac919062000515565b6040518060400160405280601181526020017f4d656d65204e616d6520536572766963650000000000000000000000000000008152506040518060400160405280600381526020017f4d4e530000000000000000000000000000000000000000000000000000000000815250816000908051906020019062000130929190620002c8565b50806001908051906020019062000149929190620002c8565b50505033600760006101000a81548173ffffffffffffffffffffffffffffffffffffffff021916908373ffffffffffffffffffffffffffffffffffffffff1602179055508060099080519060200190620001a5929190620002c8565b50620001f26040518060400160405280601881526020017f2573206e616d652073657276696365206465706c6f796564000000000000000081525082620001f960201b62001afd1760201c565b5062000663565b6200029b828260405160240162000212929190620005c3565b6040516020818303038152906040527f4b5c4277000000000000000000000000000000000000000000000000000000007bffffffffffffffffffffffffffffffffffffffffffffffffffffffff19166020820180517bffffffffffffffffffffffffffffffffffffffffffffffffffffffff83818316178352505050506200029f60201b60201c565b5050565b60008151905060006a636f6e736f6c652e6c6f679050602083016000808483855afa5050505050565b828054620002d6906200062d565b90600052602060002090601f016020900481019282620002fa576000855562000346565b82601f106200031557805160ff191683800117855562000346565b8280016001018555821562000346579182015b828111156200034557825182559160200191906001019062000328565b5b50905062000355919062000359565b5090565b5b80821115620003745760008160009055506001016200035a565b5090565b6000604051905090565b600080fd5b600080fd5b600080fd5b600080fd5b6000601f19601f8301169050919050565b7f4e487b7100000000000000000000000000000000000000000000000000000000600052604160045260246000fd5b620003e18262000396565b810181811067ffffffffffffffff82111715620004035762000402620003a7565b5b80604052505050565b60006200041862000378565b9050620004268282620003d6565b919050565b600067ffffffffffffffff821115620004495762000448620003a7565b5b620004548262000396565b9050602081019050919050565b60005b838110156200048157808201518184015260208101905062000464565b8381111562000491576000848401525b50505050565b6000620004ae620004a8846200042b565b6200040c565b905082815260208101848484011115620004cd57620004cc62000391565b5b620004da84828562000461565b509392505050565b600082601f830112620004fa57620004f96200038c565b5b81516200050c84826020860162000497565b91505092915050565b6000602082840312156200052e576200052d62000382565b5b600082015167ffffffffffffffff8111156200054f576200054e62000387565b5b6200055d84828501620004e2565b91505092915050565b600081519050919050565b600082825260208201905092915050565b60006200058f8262000566565b6200059b818562000571565b9350620005ad81856020860162000461565b620005b88162000396565b840191505092915050565b60006040820190508181036000830152620005df818562000582565b90508181036020830152620005f5818462000582565b90509392505050565b7f4e487b7100000000000000000000000000000000000000000000000000000000600052602260045260246000fd5b600060028204905060018216806200064657607f821691505b602082108114156200065d576200065c620005fe565b5b50919050565b614cbc80620006736000396000f3fe6080604052600436106101815760003560e01c806370a08231116100d1578063b88d4fde1161008a578063c87b56dd11610064578063c87b56dd146105ab578063e985e9c5146105e8578063fb825e5f14610625578063fe2c61981461065057610181565b8063b88d4fde1461051c578063bf40fac114610545578063c1880a981461058257610181565b806370a08231146103f85780638da5cb5b146104355780638f32d59b1461046057806395d89b411461048b5780639791c097146104b6578063a22cb465146104f357610181565b8063264492351161013e57806342842e0e1161011857806342842e0e146103185780634622ab0314610341578063541e771d1461037e5780636352211e146103bb57610181565b806326449235146102995780632d551432146102d65780633ccfd60b1461030157610181565b806301ffc9a71461018657806306fdde03146101c3578063081812fc146101ee5780630830602b1461022b578063095ea7b31461024757806323b872dd14610270575b600080fd5b34801561019257600080fd5b506101ad60048036038101906101a89190612fe2565b61068d565b6040516101ba919061302a565b60405180910390f35b3480156101cf57600080fd5b506101d861076f565b6040516101e591906130de565b60405180910390f35b3480156101fa57600080fd5b5061021560048036038101906102109190613136565b610801565b60405161022291906131a4565b60405180910390f35b61024560048036038101906102409190613224565b610886565b005b34801561025357600080fd5b5061026e6004803603810190610269919061329d565b610d06565b005b34801561027c57600080fd5b50610297600480360381019061029291906132dd565b610e1e565b005b3480156102a557600080fd5b506102c060048036038101906102bb9190613460565b610e7e565b6040516102cd91906131a4565b60405180910390f35b3480156102e257600080fd5b506102eb610ec7565b6040516102f891906130de565b60405180910390f35b34801561030d57600080fd5b50610316610f55565b005b34801561032457600080fd5b5061033f600480360381019061033a91906132dd565b61101b565b005b34801561034d57600080fd5b5061036860048036038101906103639190613136565b61103b565b60405161037591906130de565b60405180910390f35b34801561038a57600080fd5b506103a560048036038101906103a09190613460565b6110db565b6040516103b291906130de565b60405180910390f35b3480156103c757600080fd5b506103e260048036038101906103dd9190613136565b611191565b6040516103ef91906131a4565b60405180910390f35b34801561040457600080fd5b5061041f600480360381019061041a91906134a9565b611243565b60405161042c91906134e5565b60405180910390f35b34801561044157600080fd5b5061044a6112fb565b6040516104579190613521565b60405180910390f35b34801561046c57600080fd5b50610475611321565b604051610482919061302a565b60405180910390f35b34801561049757600080fd5b506104a0611379565b6040516104ad91906130de565b60405180910390f35b3480156104c257600080fd5b506104dd60048036038101906104d89190613224565b61140b565b6040516104ea919061302a565b60405180910390f35b3480156104ff57600080fd5b5061051a60048036038101906105159190613568565b6114bf565b005b34801561052857600080fd5b50610543600480360381019061053e9190613649565b6114d5565b005b34801561055157600080fd5b5061056c60048036038101906105679190613224565b611537565b60405161057991906131a4565b60405180910390f35b34801561058e57600080fd5b506105a960048036038101906105a491906136cc565b611582565b005b3480156105b757600080fd5b506105d260048036038101906105cd9190613136565b61165d565b6040516105df91906130de565b60405180910390f35b3480156105f457600080fd5b5061060f600480360381019061060a919061374d565b6117af565b60405161061c919061302a565b60405180910390f35b34801561063157600080fd5b5061063a611843565b6040516106479190613899565b60405180910390f35b34801561065c57600080fd5b5061067760048036038101906106729190613224565b611a21565b60405161068491906134e5565b60405180910390f35b60007f80ac58cd000000000000000000000000000000000000000000000000000000007bffffffffffffffffffffffffffffffffffffffffffffffffffffffff1916827bffffffffffffffffffffffffffffffffffffffffffffffffffffffff1916148061075857507f5b5e139f000000000000000000000000000000000000000000000000000000007bffffffffffffffffffffffffffffffffffffffffffffffffffffffff1916827bffffffffffffffffffffffffffffffffffffffffffffffffffffffff1916145b80610768575061076782611b99565b5b9050919050565b60606000805461077e906138ea565b80601f01602080910402602001604051908101604052809291908181526020018280546107aa906138ea565b80156107f75780601f106107cc576101008083540402835291602001916107f7565b820191906000526020600020905b8154815290600101906020018083116107da57829003601f168201915b5050505050905090565b600061080c82611c03565b61084b576040517f08c379a00000000000000000000000000000000000000000000000000000000081526004016108429061398e565b60405180910390fd5b6004600083815260200190815260200160002060009054906101000a900473ffffffffffffffffffffffffffffffffffffffff169050919050565b600073ffffffffffffffffffffffffffffffffffffffff16600c83836040516108b09291906139de565b908152602001604051809103902060009054906101000a900473ffffffffffffffffffffffffffffffffffffffff1673ffffffffffffffffffffffffffffffffffffffff161461092c576040517f3a81d6fc00000000000000000000000000000000000000000000000000000000815260040160405180910390fd5b610936828261140b565b6109795781816040517f7f19f48d000000000000000000000000000000000000000000000000000000008152600401610970929190613a24565b60405180910390fd5b60006109858383611a21565b9050803410156109ca576040517f08c379a00000000000000000000000000000000000000000000000000000000081526004016109c190613a94565b60405180910390fd5b6000838360096040516020016109e293929190613b94565b60405160208183030381529060405290506000600a82600b604051602001610a0c93929190613bf6565b60405160208183030381529060405290506000610a296008611c6f565b90506000610a7a87878080601f016020809104026020016040519081016040528093929190818152602001838380828437600081840152601f19601f82011690508083019250505050505050611c7d565b90506000610a8782611e32565b9050610b7b604051806060016040528060318152602001614bdd6031913989898080601f016020809104026020016040519081016040528093929190818152602001838380828437600081840152601f19601f8201169050808301925050505050505060098054610af7906138ea565b80601f0160208091040260200160405190810160405280929190818152602001828054610b23906138ea565b8015610b705780601f10610b4557610100808354040283529160200191610b70565b820191906000526020600020905b815481529060010190602001808311610b5357829003601f168201915b505050505086611f93565b6000610bb38989610b8b88612035565b85604051602001610b9f9493929190613da3565b604051602081830303815290604052612035565b9050600081604051602001610bc89190613e4e565b6040516020818303038152906040529050610bfa604051806060016040528060398152602001614ba4603991396121cd565b610c396040518060400160405280600e81526020017f46696e616c20746f6b656e55524900000000000000000000000000000000000081525082611afd565b610c5a604051806060016040528060398152602001614c0e603991396121cd565b610c643386612266565b610c6e8582612284565b33600c8b8b604051610c819291906139de565b908152602001604051809103902060006101000a81548173ffffffffffffffffffffffffffffffffffffffff021916908373ffffffffffffffffffffffffffffffffffffffff1602179055508989600e60008881526020019081526020016000209190610cef929190612e4d565b50610cfa60086122f8565b50505050505050505050565b6000610d1182611191565b90508073ffffffffffffffffffffffffffffffffffffffff168373ffffffffffffffffffffffffffffffffffffffff161415610d82576040517f08c379a0000000000000000000000000000000000000000000000000000000008152600401610d7990613ee2565b60405180910390fd5b8073ffffffffffffffffffffffffffffffffffffffff16610da161230e565b73ffffffffffffffffffffffffffffffffffffffff161480610dd05750610dcf81610dca61230e565b6117af565b5b610e0f576040517f08c379a0000000000000000000000000000000000000000000000000000000008152600401610e0690613f74565b60405180910390fd5b610e198383612316565b505050565b610e2f610e2961230e565b826123cf565b610e6e576040517f08c379a0000000000000000000000000000000000000000000000000000000008152600401610e6590614006565b60405180910390fd5b610e798383836124ad565b505050565b600c818051602081018201805184825260208301602085012081835280955050505050506000915054906101000a900473ffffffffffffffffffffffffffffffffffffffff1681565b60098054610ed4906138ea565b80601f0160208091040260200160405190810160405280929190818152602001828054610f00906138ea565b8015610f4d5780601f10610f2257610100808354040283529160200191610f4d565b820191906000526020600020905b815481529060010190602001808311610f3057829003601f168201915b505050505081565b610f5d611321565b610f6657600080fd5b600047905060003373ffffffffffffffffffffffffffffffffffffffff1682604051610f9190614057565b60006040518083038185875af1925050503d8060008114610fce576040519150601f19603f3d011682016040523d82523d6000602084013e610fd3565b606091505b5050905080611017576040517f08c379a000000000000000000000000000000000000000000000000000000000815260040161100e906140b8565b60405180910390fd5b5050565b611036838383604051806020016040528060008152506114d5565b505050565b600e602052806000526040600020600091509050805461105a906138ea565b80601f0160208091040260200160405190810160405280929190818152602001828054611086906138ea565b80156110d35780601f106110a8576101008083540402835291602001916110d3565b820191906000526020600020905b8154815290600101906020018083116110b657829003601f168201915b505050505081565b600d818051602081018201805184825260208301602085012081835280955050505050506000915090508054611110906138ea565b80601f016020809104026020016040519081016040528092919081815260200182805461113c906138ea565b80156111895780601f1061115e57610100808354040283529160200191611189565b820191906000526020600020905b81548152906001019060200180831161116c57829003601f168201915b505050505081565b6000806002600084815260200190815260200160002060009054906101000a900473ffffffffffffffffffffffffffffffffffffffff169050600073ffffffffffffffffffffffffffffffffffffffff168173ffffffffffffffffffffffffffffffffffffffff16141561123a576040517f08c379a00000000000000000000000000000000000000000000000000000000081526004016112319061414a565b60405180910390fd5b80915050919050565b60008073ffffffffffffffffffffffffffffffffffffffff168273ffffffffffffffffffffffffffffffffffffffff1614156112b4576040517f08c379a00000000000000000000000000000000000000000000000000000000081526004016112ab906141dc565b60405180910390fd5b600360008373ffffffffffffffffffffffffffffffffffffffff1673ffffffffffffffffffffffffffffffffffffffff168152602001908152602001600020549050919050565b600760009054906101000a900473ffffffffffffffffffffffffffffffffffffffff1681565b6000600760009054906101000a900473ffffffffffffffffffffffffffffffffffffffff1673ffffffffffffffffffffffffffffffffffffffff163373ffffffffffffffffffffffffffffffffffffffff1614905090565b606060018054611388906138ea565b80601f01602080910402602001604051908101604052809291908181526020018280546113b4906138ea565b80156114015780601f106113d657610100808354040283529160200191611401565b820191906000526020600020905b8154815290600101906020018083116113e457829003601f168201915b5050505050905090565b6000600361145c84848080601f016020809104026020016040519081016040528093929190818152602001838380828437600081840152601f19601f82011690508083019250505050505050611c7d565b101580156114b75750600a6114b484848080601f016020809104026020016040519081016040528093929190818152602001838380828437600081840152601f19601f82011690508083019250505050505050611c7d565b11155b905092915050565b6114d16114ca61230e565b8383612714565b5050565b6114e66114e061230e565b836123cf565b611525576040517f08c379a000000000000000000000000000000000000000000000000000000000815260040161151c90614006565b60405180910390fd5b61153184848484612881565b50505050565b6000600c838360405161154b9291906139de565b908152602001604051809103902060009054906101000a900473ffffffffffffffffffffffffffffffffffffffff16905092915050565b600c84846040516115949291906139de565b908152602001604051809103902060009054906101000a900473ffffffffffffffffffffffffffffffffffffffff1673ffffffffffffffffffffffffffffffffffffffff163373ffffffffffffffffffffffffffffffffffffffff1614611627576040517f82b4290000000000000000000000000000000000000000000000000000000000815260040160405180910390fd5b8181600d868660405161163b9291906139de565b90815260200160405180910390209190611656929190612e4d565b5050505050565b606061166882611c03565b6116a7576040517f08c379a000000000000000000000000000000000000000000000000000000000815260040161169e9061426e565b60405180910390fd5b60006006600084815260200190815260200160002080546116c7906138ea565b80601f01602080910402602001604051908101604052809291908181526020018280546116f3906138ea565b80156117405780601f1061171557610100808354040283529160200191611740565b820191906000526020600020905b81548152906001019060200180831161172357829003601f168201915b5050505050905060006117516128dd565b90506000815114156117675781925050506117aa565b60008251111561179c57808260405160200161178492919061428e565b604051602081830303815290604052925050506117aa565b6117a5846128f4565b925050505b919050565b6000600560008473ffffffffffffffffffffffffffffffffffffffff1673ffffffffffffffffffffffffffffffffffffffff16815260200190815260200160002060008373ffffffffffffffffffffffffffffffffffffffff1673ffffffffffffffffffffffffffffffffffffffff16815260200190815260200160002060009054906101000a900460ff16905092915050565b60606118836040518060400160405280601f81526020017f47657474696e6720616c6c206e616d65732066726f6d20636f6e7472616374008152506121cd565b600061188f6008611c6f565b67ffffffffffffffff8111156118a8576118a7613335565b5b6040519080825280602002602001820160405280156118db57816020015b60608152602001906001900390816118c65790505b50905060005b6118eb6008611c6f565b811015611a1957600e60008281526020019081526020016000208054611910906138ea565b80601f016020809104026020016040519081016040528092919081815260200182805461193c906138ea565b80156119895780601f1061195e57610100808354040283529160200191611989565b820191906000526020600020905b81548152906001019060200180831161196c57829003601f168201915b50505050508282815181106119a1576119a06142b2565b5b6020026020010181905250611a066040518060400160405280601781526020017f4e616d6520666f7220746f6b656e202564206973202573000000000000000000815250828484815181106119f9576119f86142b2565b5b602002602001015161299b565b8080611a1190614310565b9150506118e1565b508091505090565b600080611a7184848080601f016020809104026020016040519081016040528093929190818152602001838380828437600081840152601f19601f82011690508083019250505050505050611c7d565b905060008111611ab6576040517f08c379a0000000000000000000000000000000000000000000000000000000008152600401611aad906143a5565b60405180910390fd5b6003811415611ad0576706f05b59d3b20000915050611af7565b6004811415611aea57670429d069189e0000915050611af7565b67016345785d8a00009150505b92915050565b611b958282604051602401611b139291906143c5565b6040516020818303038152906040527f4b5c4277000000000000000000000000000000000000000000000000000000007bffffffffffffffffffffffffffffffffffffffffffffffffffffffff19166020820180517bffffffffffffffffffffffffffffffffffffffffffffffffffffffff8381831617835250505050612a3a565b5050565b60007f01ffc9a7000000000000000000000000000000000000000000000000000000007bffffffffffffffffffffffffffffffffffffffffffffffffffffffff1916827bffffffffffffffffffffffffffffffffffffffffffffffffffffffff1916149050919050565b60008073ffffffffffffffffffffffffffffffffffffffff166002600084815260200190815260200160002060009054906101000a900473ffffffffffffffffffffffffffffffffffffffff1673ffffffffffffffffffffffffffffffffffffffff1614159050919050565b600081600001549050919050565b60008060008084519050600092505b80821015611e27576000858381518110611ca957611ca86142b2565b5b602001015160f81c60f81b9050608060f81b817effffffffffffffffffffffffffffffffffffffffffffffffffffffffffffff19161015611cf857600183611cf191906143fc565b9250611e13565b60e060f81b817effffffffffffffffffffffffffffffffffffffffffffffffffffffffffffff19161015611d3a57600283611d3391906143fc565b9250611e12565b60f060f81b817effffffffffffffffffffffffffffffffffffffffffffffffffffffffffffff19161015611d7c57600383611d7591906143fc565b9250611e11565b60f8801b817effffffffffffffffffffffffffffffffffffffffffffffffffffffffffffff19161015611dbd57600483611db691906143fc565b9250611e10565b60fc60f81b817effffffffffffffffffffffffffffffffffffffffffffffffffffffffffffff19161015611dff57600583611df891906143fc565b9250611e0f565b600683611e0c91906143fc565b92505b5b5b5b5b508280611e1f90614310565b935050611c8c565b829350505050919050565b60606000821415611e7a576040518060400160405280600181526020017f30000000000000000000000000000000000000000000000000000000000000008152509050611f8e565b600082905060005b60008214611eac578080611e9590614310565b915050600a82611ea59190614481565b9150611e82565b60008167ffffffffffffffff811115611ec857611ec7613335565b5b6040519080825280601f01601f191660200182016040528015611efa5781602001600182028036833780820191505090505b5090505b60008514611f8757600182611f1391906144b2565b9150600a85611f2291906144e6565b6030611f2e91906143fc565b60f81b818381518110611f4457611f436142b2565b5b60200101907effffffffffffffffffffffffffffffffffffffffffffffffffffffffffffff1916908160001a905350600a85611f809190614481565b9450611efe565b8093505050505b919050565b61202f84848484604051602401611fad9493929190614517565b6040516020818303038152906040527f9fd009f5000000000000000000000000000000000000000000000000000000007bffffffffffffffffffffffffffffffffffffffffffffffffffffffff19166020820180517bffffffffffffffffffffffffffffffffffffffffffffffffffffffff8381831617835250505050612a3a565b50505050565b6060600082519050600081141561205e57604051806020016040528060008152509150506121c8565b6000600360028361206f91906143fc565b6120799190614481565b60046120859190614571565b9050600060208261209691906143fc565b67ffffffffffffffff8111156120af576120ae613335565b5b6040519080825280601f01601f1916602001820160405280156120e15781602001600182028036833780820191505090505b5090506000604051806060016040528060408152602001614c47604091399050600181016020830160005b868110156121855760038101905062ffffff818a015116603f8160121c168401518060081b905060ff603f83600c1c1686015116810190508060081b905060ff603f8360061c1686015116810190508060081b905060ff603f831686015116810190508060e01b9050808452600484019350505061210c565b50600386066001811461219f57600281146121af576121ba565b613d3d60f01b60028303526121ba565b603d60f81b60018303525b508484525050819450505050505b919050565b612263816040516024016121e191906130de565b6040516020818303038152906040527f41304fac000000000000000000000000000000000000000000000000000000007bffffffffffffffffffffffffffffffffffffffffffffffffffffffff19166020820180517bffffffffffffffffffffffffffffffffffffffffffffffffffffffff8381831617835250505050612a3a565b50565b612280828260405180602001604052806000815250612a63565b5050565b61228d82611c03565b6122cc576040517f08c379a00000000000000000000000000000000000000000000000000000000081526004016122c39061463d565b60405180910390fd5b806006600084815260200190815260200160002090805190602001906122f3929190612ed3565b505050565b6001816000016000828254019250508190555050565b600033905090565b816004600083815260200190815260200160002060006101000a81548173ffffffffffffffffffffffffffffffffffffffff021916908373ffffffffffffffffffffffffffffffffffffffff160217905550808273ffffffffffffffffffffffffffffffffffffffff1661238983611191565b73ffffffffffffffffffffffffffffffffffffffff167f8c5be1e5ebec7d5bd14f71427d1e84f3dd0314c0f7b2291e5b200ac8c7c3b92560405160405180910390a45050565b60006123da82611c03565b612419576040517f08c379a0000000000000000000000000000000000000000000000000000000008152600401612410906146cf565b60405180910390fd5b600061242483611191565b90508073ffffffffffffffffffffffffffffffffffffffff168473ffffffffffffffffffffffffffffffffffffffff16148061249357508373ffffffffffffffffffffffffffffffffffffffff1661247b84610801565b73ffffffffffffffffffffffffffffffffffffffff16145b806124a457506124a381856117af565b5b91505092915050565b8273ffffffffffffffffffffffffffffffffffffffff166124cd82611191565b73ffffffffffffffffffffffffffffffffffffffff1614612523576040517f08c379a000000000000000000000000000000000000000000000000000000000815260040161251a90614761565b60405180910390fd5b600073ffffffffffffffffffffffffffffffffffffffff168273ffffffffffffffffffffffffffffffffffffffff161415612593576040517f08c379a000000000000000000000000000000000000000000000000000000000815260040161258a906147f3565b60405180910390fd5b61259e838383612abe565b6125a9600082612316565b6001600360008573ffffffffffffffffffffffffffffffffffffffff1673ffffffffffffffffffffffffffffffffffffffff16815260200190815260200160002060008282546125f991906144b2565b925050819055506001600360008473ffffffffffffffffffffffffffffffffffffffff1673ffffffffffffffffffffffffffffffffffffffff168152602001908152602001600020600082825461265091906143fc565b92505081905550816002600083815260200190815260200160002060006101000a81548173ffffffffffffffffffffffffffffffffffffffff021916908373ffffffffffffffffffffffffffffffffffffffff160217905550808273ffffffffffffffffffffffffffffffffffffffff168473ffffffffffffffffffffffffffffffffffffffff167fddf252ad1be2c89b69c2b068fc378daa952ba7f163c4a11628f55a4df523b3ef60405160405180910390a461270f838383612ac3565b505050565b8173ffffffffffffffffffffffffffffffffffffffff168373ffffffffffffffffffffffffffffffffffffffff161415612783576040517f08c379a000000000000000000000000000000000000000000000000000000000815260040161277a9061485f565b60405180910390fd5b80600560008573ffffffffffffffffffffffffffffffffffffffff1673ffffffffffffffffffffffffffffffffffffffff16815260200190815260200160002060008473ffffffffffffffffffffffffffffffffffffffff1673ffffffffffffffffffffffffffffffffffffffff16815260200190815260200160002060006101000a81548160ff0219169083151502179055508173ffffffffffffffffffffffffffffffffffffffff168373ffffffffffffffffffffffffffffffffffffffff167f17307eab39ab6107e8899845ad3d59bd9653f200f220920489ca2b5937696c3183604051612874919061302a565b60405180910390a3505050565b61288c8484846124ad565b61289884848484612ac8565b6128d7576040517f08c379a00000000000000000000000000000000000000000000000000000000081526004016128ce906148f1565b60405180910390fd5b50505050565b606060405180602001604052806000815250905090565b60606128ff82611c03565b61293e576040517f08c379a000000000000000000000000000000000000000000000000000000000815260040161293590614983565b60405180910390fd5b60006129486128dd565b905060008151116129685760405180602001604052806000815250612993565b8061297284611e32565b60405160200161298392919061428e565b6040516020818303038152906040525b915050919050565b612a358383836040516024016129b3939291906149a3565b6040516020818303038152906040527fa3f5c739000000000000000000000000000000000000000000000000000000007bffffffffffffffffffffffffffffffffffffffffffffffffffffffff19166020820180517bffffffffffffffffffffffffffffffffffffffffffffffffffffffff8381831617835250505050612a3a565b505050565b60008151905060006a636f6e736f6c652e6c6f679050602083016000808483855afa5050505050565b612a6d8383612c50565b612a7a6000848484612ac8565b612ab9576040517f08c379a0000000000000000000000000000000000000000000000000000000008152600401612ab0906148f1565b60405180910390fd5b505050565b505050565b505050565b6000612ae98473ffffffffffffffffffffffffffffffffffffffff16612e2a565b15612c43578373ffffffffffffffffffffffffffffffffffffffff1663150b7a02612b1261230e565b8786866040518563ffffffff1660e01b8152600401612b349493929190614a3d565b6020604051808303816000875af1925050508015612b7057506040513d601f19601f82011682018060405250810190612b6d9190614a9e565b60015b612bf3573d8060008114612ba0576040519150601f19603f3d011682016040523d82523d6000602084013e612ba5565b606091505b50600081511415612beb576040517f08c379a0000000000000000000000000000000000000000000000000000000008152600401612be2906148f1565b60405180910390fd5b805181602001fd5b63150b7a0260e01b7bffffffffffffffffffffffffffffffffffffffffffffffffffffffff1916817bffffffffffffffffffffffffffffffffffffffffffffffffffffffff191614915050612c48565b600190505b949350505050565b600073ffffffffffffffffffffffffffffffffffffffff168273ffffffffffffffffffffffffffffffffffffffff161415612cc0576040517f08c379a0000000000000000000000000000000000000000000000000000000008152600401612cb790614b17565b60405180910390fd5b612cc981611c03565b15612d09576040517f08c379a0000000000000000000000000000000000000000000000000000000008152600401612d0090614b83565b60405180910390fd5b612d1560008383612abe565b6001600360008473ffffffffffffffffffffffffffffffffffffffff1673ffffffffffffffffffffffffffffffffffffffff1681526020019081526020016000206000828254612d6591906143fc565b92505081905550816002600083815260200190815260200160002060006101000a81548173ffffffffffffffffffffffffffffffffffffffff021916908373ffffffffffffffffffffffffffffffffffffffff160217905550808273ffffffffffffffffffffffffffffffffffffffff16600073ffffffffffffffffffffffffffffffffffffffff167fddf252ad1be2c89b69c2b068fc378daa952ba7f163c4a11628f55a4df523b3ef60405160405180910390a4612e2660008383612ac3565b5050565b6000808273ffffffffffffffffffffffffffffffffffffffff163b119050919050565b828054612e59906138ea565b90600052602060002090601f016020900481019282612e7b5760008555612ec2565b82601f10612e9457803560ff1916838001178555612ec2565b82800160010185558215612ec2579182015b82811115612ec1578235825591602001919060010190612ea6565b5b509050612ecf9190612f59565b5090565b828054612edf906138ea565b90600052602060002090601f016020900481019282612f015760008555612f48565b82601f10612f1a57805160ff1916838001178555612f48565b82800160010185558215612f48579182015b82811115612f47578251825591602001919060010190612f2c565b5b509050612f559190612f59565b5090565b5b80821115612f72576000816000905550600101612f5a565b5090565b6000604051905090565b600080fd5b600080fd5b60007fffffffff0000000000000000000000000000000000000000000000000000000082169050919050565b612fbf81612f8a565b8114612fca57600080fd5b50565b600081359050612fdc81612fb6565b92915050565b600060208284031215612ff857612ff7612f80565b5b600061300684828501612fcd565b91505092915050565b60008115159050919050565b6130248161300f565b82525050565b600060208201905061303f600083018461301b565b92915050565b600081519050919050565b600082825260208201905092915050565b60005b8381101561307f578082015181840152602081019050613064565b8381111561308e576000848401525b50505050565b6000601f19601f8301169050919050565b60006130b082613045565b6130ba8185613050565b93506130ca818560208601613061565b6130d381613094565b840191505092915050565b600060208201905081810360008301526130f881846130a5565b905092915050565b6000819050919050565b61311381613100565b811461311e57600080fd5b50565b6000813590506131308161310a565b92915050565b60006020828403121561314c5761314b612f80565b5b600061315a84828501613121565b91505092915050565b600073ffffffffffffffffffffffffffffffffffffffff82169050919050565b600061318e82613163565b9050919050565b61319e81613183565b82525050565b60006020820190506131b96000830184613195565b92915050565b600080fd5b600080fd5b600080fd5b60008083601f8401126131e4576131e36131bf565b5b8235905067ffffffffffffffff811115613201576132006131c4565b5b60208301915083600182028301111561321d5761321c6131c9565b5b9250929050565b6000806020838503121561323b5761323a612f80565b5b600083013567ffffffffffffffff81111561325957613258612f85565b5b613265858286016131ce565b92509250509250929050565b61327a81613183565b811461328557600080fd5b50565b60008135905061329781613271565b92915050565b600080604083850312156132b4576132b3612f80565b5b60006132c285828601613288565b92505060206132d385828601613121565b9150509250929050565b6000806000606084860312156132f6576132f5612f80565b5b600061330486828701613288565b935050602061331586828701613288565b925050604061332686828701613121565b9150509250925092565b600080fd5b7f4e487b7100000000000000000000000000000000000000000000000000000000600052604160045260246000fd5b61336d82613094565b810181811067ffffffffffffffff8211171561338c5761338b613335565b5b80604052505050565b600061339f612f76565b90506133ab8282613364565b919050565b600067ffffffffffffffff8211156133cb576133ca613335565b5b6133d482613094565b9050602081019050919050565b82818337600083830152505050565b60006134036133fe846133b0565b613395565b90508281526020810184848401111561341f5761341e613330565b5b61342a8482856133e1565b509392505050565b600082601f830112613447576134466131bf565b5b81356134578482602086016133f0565b91505092915050565b60006020828403121561347657613475612f80565b5b600082013567ffffffffffffffff81111561349457613493612f85565b5b6134a084828501613432565b91505092915050565b6000602082840312156134bf576134be612f80565b5b60006134cd84828501613288565b91505092915050565b6134df81613100565b82525050565b60006020820190506134fa60008301846134d6565b92915050565b600061350b82613163565b9050919050565b61351b81613500565b82525050565b60006020820190506135366000830184613512565b92915050565b6135458161300f565b811461355057600080fd5b50565b6000813590506135628161353c565b92915050565b6000806040838503121561357f5761357e612f80565b5b600061358d85828601613288565b925050602061359e85828601613553565b9150509250929050565b600067ffffffffffffffff8211156135c3576135c2613335565b5b6135cc82613094565b9050602081019050919050565b60006135ec6135e7846135a8565b613395565b90508281526020810184848401111561360857613607613330565b5b6136138482856133e1565b509392505050565b600082601f8301126136305761362f6131bf565b5b81356136408482602086016135d9565b91505092915050565b6000806000806080858703121561366357613662612f80565b5b600061367187828801613288565b945050602061368287828801613288565b935050604061369387828801613121565b925050606085013567ffffffffffffffff8111156136b4576136b3612f85565b5b6136c08782880161361b565b91505092959194509250565b600080600080604085870312156136e6576136e5612f80565b5b600085013567ffffffffffffffff81111561370457613703612f85565b5b613710878288016131ce565b9450945050602085013567ffffffffffffffff81111561373357613732612f85565b5b61373f878288016131ce565b925092505092959194509250565b6000806040838503121561376457613763612f80565b5b600061377285828601613288565b925050602061378385828601613288565b9150509250929050565b600081519050919050565b600082825260208201905092915050565b6000819050602082019050919050565b600082825260208201905092915050565b60006137d582613045565b6137df81856137b9565b93506137ef818560208601613061565b6137f881613094565b840191505092915050565b600061380f83836137ca565b905092915050565b6000602082019050919050565b600061382f8261378d565b6138398185613798565b93508360208202850161384b856137a9565b8060005b8581101561388757848403895281516138688582613803565b945061387383613817565b925060208a0199505060018101905061384f565b50829750879550505050505092915050565b600060208201905081810360008301526138b38184613824565b905092915050565b7f4e487b7100000000000000000000000000000000000000000000000000000000600052602260045260246000fd5b6000600282049050600182168061390257607f821691505b60208210811415613916576139156138bb565b5b50919050565b7f4552433732313a20617070726f76656420717565727920666f72206e6f6e657860008201527f697374656e7420746f6b656e0000000000000000000000000000000000000000602082015250565b6000613978602c83613050565b91506139838261391c565b604082019050919050565b600060208201905081810360008301526139a78161396b565b9050919050565b600081905092915050565b60006139c583856139ae565b93506139d28385846133e1565b82840190509392505050565b60006139eb8284866139b9565b91508190509392505050565b6000613a038385613050565b9350613a108385846133e1565b613a1983613094565b840190509392505050565b60006020820190508181036000830152613a3f8184866139f7565b90509392505050565b7f4e6f7420656e6f756768204d6174696320706169640000000000000000000000600082015250565b6000613a7e601583613050565b9150613a8982613a48565b602082019050919050565b60006020820190508181036000830152613aad81613a71565b9050919050565b7f2e00000000000000000000000000000000000000000000000000000000000000600082015250565b6000613aea6001836139ae565b9150613af582613ab4565b600182019050919050565b60008190508160005260206000209050919050565b60008154613b22816138ea565b613b2c81866139ae565b94506001821660008114613b475760018114613b5857613b8b565b60ff19831686528186019350613b8b565b613b6185613b00565b60005b83811015613b8357815481890152600182019150602081019050613b64565b838801955050505b50505092915050565b6000613ba18285876139b9565b9150613bac82613add565b9150613bb88284613b15565b9150819050949350505050565b6000613bd082613045565b613bda81856139ae565b9350613bea818560208601613061565b80840191505092915050565b6000613c028286613b15565b9150613c0e8285613bc5565b9150613c1a8284613b15565b9150819050949350505050565b7f7b226e616d65223a202200000000000000000000000000000000000000000000600082015250565b6000613c5d600a836139ae565b9150613c6882613c27565b600a82019050919050565b7f222c20226465736372697074696f6e223a20224120646f6d61696e206f6e207460008201527f6865204d656d65204e616d652073657276696365222c2022696d616765223a2060208201527f22646174613a696d6167652f7376672b786d6c3b6261736536342c0000000000604082015250565b6000613cf5605b836139ae565b9150613d0082613c73565b605b82019050919050565b7f222c226c656e677468223a220000000000000000000000000000000000000000600082015250565b6000613d41600c836139ae565b9150613d4c82613d0b565b600c82019050919050565b7f227d000000000000000000000000000000000000000000000000000000000000600082015250565b6000613d8d6002836139ae565b9150613d9882613d57565b600282019050919050565b6000613dae82613c50565b9150613dbb8286886139b9565b9150613dc682613ce8565b9150613dd28285613bc5565b9150613ddd82613d34565b9150613de98284613bc5565b9150613df482613d80565b915081905095945050505050565b7f646174613a6170706c69636174696f6e2f6a736f6e3b6261736536342c000000600082015250565b6000613e38601d836139ae565b9150613e4382613e02565b601d82019050919050565b6000613e5982613e2b565b9150613e658284613bc5565b915081905092915050565b7f4552433732313a20617070726f76616c20746f2063757272656e74206f776e6560008201527f7200000000000000000000000000000000000000000000000000000000000000602082015250565b6000613ecc602183613050565b9150613ed782613e70565b604082019050919050565b60006020820190508181036000830152613efb81613ebf565b9050919050565b7f4552433732313a20617070726f76652063616c6c6572206973206e6f74206f7760008201527f6e6572206e6f7220617070726f76656420666f7220616c6c0000000000000000602082015250565b6000613f5e603883613050565b9150613f6982613f02565b604082019050919050565b60006020820190508181036000830152613f8d81613f51565b9050919050565b7f4552433732313a207472616e736665722063616c6c6572206973206e6f74206f60008201527f776e6572206e6f7220617070726f766564000000000000000000000000000000602082015250565b6000613ff0603183613050565b9150613ffb82613f94565b604082019050919050565b6000602082019050818103600083015261401f81613fe3565b9050919050565b600081905092915050565b50565b6000614041600083614026565b915061404c82614031565b600082019050919050565b600061406282614034565b9150819050919050565b7f4661696c656420746f207769746864726177204d617469630000000000000000600082015250565b60006140a2601883613050565b91506140ad8261406c565b602082019050919050565b600060208201905081810360008301526140d181614095565b9050919050565b7f4552433732313a206f776e657220717565727920666f72206e6f6e657869737460008201527f656e7420746f6b656e0000000000000000000000000000000000000000000000602082015250565b6000614134602983613050565b915061413f826140d8565b604082019050919050565b6000602082019050818103600083015261416381614127565b9050919050565b7f4552433732313a2062616c616e636520717565727920666f7220746865207a6560008201527f726f206164647265737300000000000000000000000000000000000000000000602082015250565b60006141c6602a83613050565b91506141d18261416a565b604082019050919050565b600060208201905081810360008301526141f5816141b9565b9050919050565b7f45524337323155524953746f726167653a2055524920717565727920666f722060008201527f6e6f6e6578697374656e7420746f6b656e000000000000000000000000000000602082015250565b6000614258603183613050565b9150614263826141fc565b604082019050919050565b600060208201905081810360008301526142878161424b565b9050919050565b600061429a8285613bc5565b91506142a68284613bc5565b91508190509392505050565b7f4e487b7100000000000000000000000000000000000000000000000000000000600052603260045260246000fd5b7f4e487b7100000000000000000000000000000000000000000000000000000000600052601160045260246000fd5b600061431b82613100565b91507fffffffffffffffffffffffffffffffffffffffffffffffffffffffffffffffff82141561434e5761434d6142e1565b5b600182019050919050565b7f6e616d65206d757374206265206e6f6e2d656d70747900000000000000000000600082015250565b600061438f601683613050565b915061439a82614359565b602082019050919050565b600060208201905081810360008301526143be81614382565b9050919050565b600060408201905081810360008301526143df81856130a5565b905081810360208301526143f381846130a5565b90509392505050565b600061440782613100565b915061441283613100565b9250827fffffffffffffffffffffffffffffffffffffffffffffffffffffffffffffffff03821115614447576144466142e1565b5b828201905092915050565b7f4e487b7100000000000000000000000000000000000000000000000000000000600052601260045260246000fd5b600061448c82613100565b915061449783613100565b9250826144a7576144a6614452565b5b828204905092915050565b60006144bd82613100565b91506144c883613100565b9250828210156144db576144da6142e1565b5b828203905092915050565b60006144f182613100565b91506144fc83613100565b92508261450c5761450b614452565b5b828206905092915050565b6000608082019050818103600083015261453181876130a5565b9050818103602083015261454581866130a5565b9050818103604083015261455981856130a5565b905061456860608301846134d6565b95945050505050565b600061457c82613100565b915061458783613100565b9250817fffffffffffffffffffffffffffffffffffffffffffffffffffffffffffffffff04831182151516156145c0576145bf6142e1565b5b828202905092915050565b7f45524337323155524953746f726167653a2055524920736574206f66206e6f6e60008201527f6578697374656e7420746f6b656e000000000000000000000000000000000000602082015250565b6000614627602e83613050565b9150614632826145cb565b604082019050919050565b600060208201905081810360008301526146568161461a565b9050919050565b7f4552433732313a206f70657261746f7220717565727920666f72206e6f6e657860008201527f697374656e7420746f6b656e0000000000000000000000000000000000000000602082015250565b60006146b9602c83613050565b91506146c48261465d565b604082019050919050565b600060208201905081810360008301526146e8816146ac565b9050919050565b7f4552433732313a207472616e736665722066726f6d20696e636f72726563742060008201527f6f776e6572000000000000000000000000000000000000000000000000000000602082015250565b600061474b602583613050565b9150614756826146ef565b604082019050919050565b6000602082019050818103600083015261477a8161473e565b9050919050565b7f4552433732313a207472616e7366657220746f20746865207a65726f2061646460008201527f7265737300000000000000000000000000000000000000000000000000000000602082015250565b60006147dd602483613050565b91506147e882614781565b604082019050919050565b6000602082019050818103600083015261480c816147d0565b9050919050565b7f4552433732313a20617070726f766520746f2063616c6c657200000000000000600082015250565b6000614849601983613050565b915061485482614813565b602082019050919050565b600060208201905081810360008301526148788161483c565b9050919050565b7f4552433732313a207472616e7366657220746f206e6f6e20455243373231526560008201527f63656976657220696d706c656d656e7465720000000000000000000000000000602082015250565b60006148db603283613050565b91506148e68261487f565b604082019050919050565b6000602082019050818103600083015261490a816148ce565b9050919050565b7f4552433732314d657461646174613a2055524920717565727920666f72206e6f60008201527f6e6578697374656e7420746f6b656e0000000000000000000000000000000000602082015250565b600061496d602f83613050565b915061497882614911565b604082019050919050565b6000602082019050818103600083015261499c81614960565b9050919050565b600060608201905081810360008301526149bd81866130a5565b90506149cc60208301856134d6565b81810360408301526149de81846130a5565b9050949350505050565b600081519050919050565b600082825260208201905092915050565b6000614a0f826149e8565b614a1981856149f3565b9350614a29818560208601613061565b614a3281613094565b840191505092915050565b6000608082019050614a526000830187613195565b614a5f6020830186613195565b614a6c60408301856134d6565b8181036060830152614a7e8184614a04565b905095945050505050565b600081519050614a9881612fb6565b92915050565b600060208284031215614ab457614ab3612f80565b5b6000614ac284828501614a89565b91505092915050565b7f4552433732313a206d696e7420746f20746865207a65726f2061646472657373600082015250565b6000614b01602083613050565b9150614b0c82614acb565b602082019050919050565b60006020820190508181036000830152614b3081614af4565b9050919050565b7f4552433732313a20746f6b656e20616c7265616479206d696e74656400000000600082015250565b6000614b6d601c83613050565b9150614b7882614b37565b602082019050919050565b60006020820190508181036000830152614b9c81614b60565b905091905056fe0a2d2d2d2d2d2d2d2d2d2d2d2d2d2d2d2d2d2d2d2d2d2d2d2d2d2d2d2d2d2d2d2d2d2d2d2d2d2d2d2d2d2d2d2d2d2d2d2d2d2d2d2d2d2d2d2d5265676973746572696e672025732e2573206f6e2074686520636f6e7472616374207769746820746f6b656e49442025642d2d2d2d2d2d2d2d2d2d2d2d2d2d2d2d2d2d2d2d2d2d2d2d2d2d2d2d2d2d2d2d2d2d2d2d2d2d2d2d2d2d2d2d2d2d2d2d2d2d2d2d2d2d2d2d0a4142434445464748494a4b4c4d4e4f505152535455565758595a6162636465666768696a6b6c6d6e6f707172737475767778797a303132333435363738392b2fa2646970667358221220e2b794218518e8027998469cec53bf288050ba6d907fb9cc50f217e0e83b276e64736f6c634300080a00333c73766720786d6c6e733d22687474703a2f2f7777772e77332e6f72672f323030302f737667222077696474683d2232373022206865696768743d22323730222066696c6c3d226e6f6e65223e3c706174682066696c6c3d2275726c282342292220643d224d302030683237307632373048307a222f3e3c646566733e3c66696c7465722069643d22412220636f6c6f722d696e746572706f6c6174696f6e2d66696c746572733d2273524742222066696c746572556e6974733d227573657253706163654f6e55736522206865696768743d22323730222077696474683d22323730223e3c666544726f70536861646f772064783d2230222064793d22312220737464446576696174696f6e3d22322220666c6f6f642d6f7061636974793d222e323235222077696474683d223230302522206865696768743d2232303025222f3e3c2f66696c7465723e3c2f646566733e3c7061746820643d224d37322e3836332034322e393439632d2e3636382d2e3338372d312e3432362d2e35392d322e3139372d2e3539732d312e3532392e3230342d322e3139372e35396c2d31302e30383120362e3033322d362e383520332e3933342d31302e30383120362e303332632d2e3636382e3338372d312e3432362e35392d322e3139372e3539732d312e3532392d2e3230342d322e3139372d2e35396c2d382e3031332d342e37323161342e353220342e35322030203020312d312e3538392d312e363136632d2e3338342d2e3636352d2e3539342d312e3431382d2e3630382d322e313837762d392e3331632d2e3031332d2e3737352e3138352d312e3533382e3537322d322e32303861342e323520342e323520302030203120312e3632352d312e3539356c372e3838342d342e3539632e3636382d2e33383720312e3432362d2e353920322e3139372d2e353973312e3532392e32303420322e3139372e35396c372e38383420342e353961342e353220342e353220302030203120312e35383920312e363136632e3338342e3636352e35393420312e3431382e36303820322e31383776362e3033326c362e38352d342e303635762d362e303332632e3031332d2e3737352d2e3138352d312e3533382d2e3537322d322e32303861342e323520342e32352030203020302d312e3632352d312e3539354c34312e3435362032342e3539632d2e3636382d2e3338372d312e3432362d2e35392d322e3139372d2e3539732d312e3532392e3230342d322e3139372e35396c2d31342e38363420382e36353561342e323520342e32352030203020302d312e36323520312e353935632d2e3338372e36372d2e35383520312e3433342d2e35373220322e3230387631372e343431632d2e3031332e3737352e31383520312e3533382e35373220322e32303861342e323520342e323520302030203020312e36323520312e3539356c31342e38363420382e363535632e3636382e33383720312e3432362e353920322e3139372e353973312e3532392d2e32303420322e3139372d2e35396c31302e3038312d352e39303120362e38352d342e3036352031302e3038312d352e393031632e3636382d2e33383720312e3432362d2e353920322e3139372d2e353973312e3532392e32303420322e3139372e35396c372e38383420342e353961342e353220342e353220302030203120312e35383920312e363136632e3338342e3636352e35393420312e3431382e36303820322e31383776392e333131632e3031332e3737352d2e31383520312e3533382d2e35373220322e32303861342e323520342e32352030203020312d312e36323520312e3539356c2d372e38383420342e373231632d2e3636382e3338372d312e3432362e35392d322e3139372e3539732d312e3532392d2e3230342d322e3139372d2e35396c2d372e3838342d342e353961342e353220342e35322030203020312d312e3538392d312e363136632d2e3338352d2e3636352d2e3539342d312e3431382d2e3630382d322e313837762d362e3033326c2d362e383520342e30363576362e303332632d2e3031332e3737352e31383520312e3533382e35373220322e32303861342e323520342e323520302030203020312e36323520312e3539356c31342e38363420382e363535632e3636382e33383720312e3432362e353920322e3139372e353973312e3532392d2e32303420322e3139372d2e35396c31342e3836342d382e363535632e3635372d2e33393420312e3230342d2e393520312e3538392d312e363136732e3539342d312e3431382e3630392d322e3138375635352e353338632e3031332d2e3737352d2e3138352d312e3533382d2e3537322d322e32303861342e323520342e32352030203020302d312e3632352d312e3539356c2d31342e3939332d382e3738367a222066696c6c3d2223666666222f3e3c646566733e3c6c696e6561724772616469656e742069643d2242222078313d2230222079313d2230222078323d22323730222079323d2232373022206772616469656e74556e6974733d227573657253706163654f6e557365223e3c73746f702073746f702d636f6c6f723d2223313139393865222f3e3c73746f70206f66667365743d2231222073746f702d636f6c6f723d2223333865663764222073746f702d6f7061636974793d222e3939222f3e3c2f6c696e6561724772616469656e743e3c2f646566733e3c7465787420783d2233322e352220793d223233312220666f6e742d73697a653d223237222066696c6c3d2223666666222066696c7465723d2275726c282341292220666f6e742d66616d696c793d22506c7573204a616b617274612053616e732c44656a6156752053616e732c4e6f746f20436f6c6f7220456d6f6a692c4170706c6520436f6c6f7220456d6f6a692c73616e732d73657269662220666f6e742d7765696768743d22626f6c64223e",
  "linkReferences": {},
  "deployedLinkReferences": {}
}